:020000040800F2
:10000000B8050020D5000008D1130008CD13000862
:1000100000000000000000000000000000000000E0
:100020000000000000000000000000004F14000865
:1000300000000000000000004D14000851140008EA
:10004000000000000000000000000000E7000008C1
:10005000E7000008E7000008E7000008E7000008E4
:100060000000000000000000000000000000000090
:10007000E7000008E7000008E700000800000000B3
:1000800000000000E700000800000000E700000892
:10009000000000000000000000000000E700000871
:1000A00000000000E700000800000000F71700084B
:1000B0000000000000000000000000000000000040
:1000C0000348854600F0A0F800480047D921000801
:1000D000B80500200448804704480047FEE7FEE7D3
:1000E000FEE7FEE7FEE7FEE759140008C10000083E
:1000F00030B50B46014600202022012409E00D46C0
:10010000D5409D4205D31D469540491B2546954047
:1001100040191546521E002DF1DC30BDF0B51FB45C
:100120000646002082B005464024019100901BE065
:10013000019922460F46304600F054F8049A059B78
:10014000801A994110D310461946224600F03AF819
:10015000361A8F410197224601200021009F00F0AE
:1001600031F838184D4100902046641E0028DFDC2D
:10017000019B00982946324607B0F0BD03460B4369
:100180009B0703D009E008C9121F08C0042AFAD24D
:1001900003E00B780370401C491C521EF9D27047D3
:1001A000D2B201E00270401C491EFBD2704700220F
:1001B000F6E710B513460A4604461946FFF7F0FF66
:1001C000204610BD10B5202A04DB0146203A91409C
:1001D000002010BD914020239C1A0346E3401943A0
:1001E000904010BD10B5202A04DB0846203AD040CC
:1001F000002110BD0B46D340D0402024A21A9140CC
:100200000843194610BD0000064C0125064E05E0C6
:10021000E36807CC2B430C3C98471034B442F7D327
:10022000FFF752FF403200086032000808B5054968
:100230004143009100BF00BF00994A1E009200296F
:10024000F9D108BDB80B000010B5074B1A6AFF239F
:10025000034314469C43224613460B43AA242343DC
:10026000014C236210BD00000020024070B504461E
:1002700000F094FA051905E000F090FAA84201D3C5
:10028000032070BD06480069012109040840000CE4
:100290000028F1D10348024908610020F1E700007D
:1002A000002002401180000070B5044600F076FA8C
:1002B00006462546681C002802D0054800682D180F
:1002C00000BF00F06BFA801BA842FAD370BD00009B
:1002D000C8000020012007494969C2071143054AA7
:1002E000516111464969C90FC907002900D0002092
:1002F00070470000002002400B2101600D49C96ACF
:10030000C94389B241600B49496AC906C90E816077
:100310000849496A1F2212021140090AC160FF21DF
:10032000090201610349096AFF2212021140416179
:10033000704700000020024070B50446012500BF50
:1003400073480078012801D1022070BD0120704956
:10035000087000BF00BF6F4949680722520311406F
:10036000480B6D49096882006C4B9A581288D20577
:10037000D20D914246D16849496882009A58126864
:100380001201920D91423DD16349096982009A5848
:1003900012689203D20D914234D15F49896882007C
:1003A0009A589288D205D20D91422BD15A49C968E8
:1003B00082009A5852681201120D914222D1564978
:1003C000496982009A5892689203920B914219D11E
:1003D0005149896982009A58D2689203920B9142DE
:1003E00010D14D49C96982009A58128A92B291423D
:1003F00008D14949096A82009A5812699200920C00
:10040000914248D000BF8100444A51580988C9052B
:10041000C90D414A11608100404A515809680901DB
:10042000890D3D4A516081003C4A51580968890351
:10043000C90D394A11618100384A51588988C90566
:10044000C90D354A91608100344A51584968090103
:10045000090D314AD1608100304A515889688903B9
:10046000890B2D4A516181002C4A5158C968890372
:10047000890B294A91618100284A5158098A89B219
:10048000254AD1618100254A515809698900890CA2
:10049000214A116200BF00BF2078C007C00F0028AA
:1004A00004D0A088C04380B21D49C86202212068E0
:1004B0000840002805D0E1680902A06808431849EF
:1004C0004862082120680840002803D0616920693B
:1004D000FFF7BAFE12484069012149040843104958
:1004E0004861084640690121090608430C494861F2
:1004F000FF200949803908607D20C000FFF7B6FE63
:10050000054600BF00200249087000BF28461CE7CE
:10051000A00100200010024000210240003200082B
:1005200000200240044840690121C90608430249ED
:100530004861012070470000002002400120074967
:10054000496982071143054A516111464969820789
:100550001140002900D00020704700000020024018
:100560000120094949698207114000290BD0074938
:10057000054AD1600649D160114649698207114098
:10058000002900D100207047002002403B2A1908B2
:100590007F6E5D4C002009494969C90FC9070029D0
:1005A0000BD00749054A9160064991601146496997
:1005B000C90FC907002900D0012070470020024060
:1005C00023016745AB89EFCD70B503460022CBE030
:1005D000012696400C683440002C71D04D68022DE5
:1005E00002D04D68122D15D1D508AE001D4620351C
:1005F000A8595507EE0E0F25B5400646AE433046C6
:100600005607F60E0D69B5402843D508AD001E46C5
:1006100020367051186856000325B5400646AE4393
:1006200030460D79AD07AD0F5600B5402843186030
:100630004D68012D08D04D68022D05D04D68112D53
:1006400002D04D68122D18D1986856000325B54088
:100650000646AE4330465600CD68B5402843986004
:100660005868012595400646AE43304610264D6831
:1006700035402D09954028435860D8685600032519
:10068000B5400646AE43304656008D68B540284317
:10069000D860012636074D683540B54263D1354DE7
:1006A0009608B600A8599507EE0E0F25B5400646E8
:1006B000AE43304605252D07AB4202D1002506E0AA
:1006C00051E02D4DAB4201D1012500E002259607F6
:1006D000F60EB5402843274D9608B600A851254D83
:1006E000203528680546A5432846012636044D686E
:1006F0003540B54202D10546254328461D4D2035DB
:10070000286068680546A5432846012676044D689A
:100710003540B54202D1054625432846154D2035C2
:100720006860144D603D28680546A54328460126AB
:1007300036054D683540B54202D105462543284669
:100740000C4D603D286068680546A5432846012693
:1007500076054D683540B54202D105462543284609
:10076000044D603D6860521C0D68D540002D00D0DE
:100770002EE770BD60180240000400500246136965
:100780000B40002B01D0012000E000207047002A20
:1007900001D0816100E0816270470000014800687B
:1007A00070470000C00000200146002200BF3C202E
:1007B000405C012801D10220704701233C204354B2
:1007C00000BF24233D2043540868C2680C23104610
:1007D00098430246042002430868C26020233D205B
:1007E000435400BF00233C20435400BF0020E3E7F4
:1007F0000146002200BF3C20405C012801D10220BC
:10080000704701233C20435400BF24233D20435420
:100810000868C2680C231046984302460820024329
:100820000868C26020233D20435400BF00233C20C1
:10083000435400BF0020E3E710B50446002C01D16B
:10084000012010BD3D20005D002805D100213C2085
:100850000155204600F0E8FC24213D200155206888
:10086000C0680121490388432168C860204600F020
:100870007FFE206800690121C90288432168086160
:100880002068406908210843216848612068C068E1
:100890000121490308432168C86000202064202109
:1008A0003D2001553E2001550020CAE7034800685D
:1008B000034909684018014908607047C0000020DA
:1008C000C800002010B50024002000F009F800281E
:1008D00001D0012401E000F033F8204610BD0000F3
:1008E000F8B5044600251348006800281ED01148BA
:1008F00001687D20C000FFF7FBFB074639460E4824
:100900000068FFF7F5FB064600F08CFB00280BD1D2
:10091000042C07D200222146401E00F01FF8074891
:10092000046004E0012502E0012500E001252846DD
:10093000F8BD0000C800002000000020C400002016
:100940007047000000BFC206D20E01219140024A4A
:10095000116000BF7047000000E100E070B5044680
:100960000D4616462946204600F034FD70BD0000B5
:1009700070B504460D46002C01D1012070BD6548BC
:100980000068C007C00FA84218D26248006840083B
:10099000400028435F490860FFF700FF064607E074
:1009A000FFF7FCFE801B5C49884201D90320E5E784
:1009B00058480068C007C00FA842F1D10221206842
:1009C0000840022815D1042120680840042807D1D6
:1009D0005248806807210903884340184F498860BE
:1009E0004E4880680F2109028843A16808434B499B
:1009F00088602078C007C00F002848D060680128B0
:100A000008D146480068012189040840002822D105
:100A10000120B3E76068002808D140480068012140
:100A200089020840002816D10120A7E76068042841
:100A300008D13A484030C0690221084000280AD154
:100A400001209BE735484030006A02210840002819
:100A500001D1012092E731488068C008C000616878
:100A600008432E498860FFF799FE064607E0FFF726
:100A700095FE801B2849884201D903207EE727483C
:100A80008068382108406168C9008842EFD1214858
:100A90000068C007C00FA84218D91E480068400867
:100AA000400028431B490860FFF778FE064607E030
:100AB000FFF774FE801B1849884201D903205DE7C7
:100AC00014480068C007C00FA842F1D10421206873
:100AD0000840042808D11148806807210903884389
:100AE000E16808430D49886000F03AF80B498968CD
:100AF0000F2212021140090A8900094A515CC906F5
:100B0000C90EC8400749086007480068FFF7E8FEBB
:100B100034E700000020024088130000001002406B
:100B2000F430000800000020C400002001480068E4
:100B3000704700000000002000B5FFF7F7FF0649EE
:100B40008968072212031140090B8900034A515C8E
:100B5000C906C90EC84000BD00100240343100086B
:100B600070B588B020221E496846FFF707FB1D4874
:100B7000806838210840002814D11A48006809020A
:100B80000840C10A01258D401648406807214903E5
:100B90000840460BB1006A4650582946FFF7A8FAAC
:100BA000044619E00F48806838210840082801D120
:100BB0000D4C11E00B48806838210840202801D1F5
:100BC000840209E00748806838210840182802D1CB
:100BD0000124E40300E00024204608B070BD0000BA
:100BE000203200080010024000366E0170B5044645
:100BF000002C01D1012070BD2078C007C00F002853
:100C00001ED0FA48866838210E40082E04D160684C
:100C1000002815D10120EEE700BF0121890460689A
:100C2000884205D1F14800680843F049086006E0B1
:100C3000EE480068012189048843EC49086000BF40
:100C4000022120680840022875D1E84880683821D0
:100C500008400646002E58D1E44800680121890268
:100C60000840002804D02069002801D10120C2E7F3
:100C7000DF48006840084000401CDD490860DB4850
:100C800000680721C902884361690843D7490860A1
:100C900008464068000C0004A1690843D349486035
:100CA000FFF77CFD054606E0FFF778FD401B0228B4
:100CB00001D903209FE7CD4800680121890208403F
:100CC0000028F1D0FFF74CFFC84989680F221202B3
:100CD0001140090A8900C74A515CC906C90EC840BB
:100CE000C549086008460068C449884205D8C0481C
:100CF000006840084000BE490860C1480068FFF72E
:100D0000EFFD002848D0012075E7206900282AD08F
:100D1000B64800680721C902884361690843B3499E
:100D200008600846006889150843B0490860FFF765
:100D300035FD054607E02FE0FFF730FD401B022898
:100D400001D9032057E7A94800680121890208401A
:100D50000028F1D0A5484068000C0004A1690843B0
:100D6000A249486018E0A1480068FF21013188438A
:100D70009E490860FFF712FD054606E0FFF70EFDED
:100D8000401B022801D9032035E79848006801215B
:100D9000890208400028F1D108212068084008286D
:100DA0006ED19248806838210840182840D18F4879
:100DB0004030006A02210840002804D0E069002881
:100DC00001D1012017E7894840688E4908408E49C3
:100DD0008988C905C909084384494860FFF7DEFCD2
:100DE000054606E0FFF7DAFC401B022801D9032084
:100DF00001E77E484030006A022108400028F1D017
:100E0000FFF7AEFE794989680F2212021140090AE4
:100E10008900784A515CC906C90EC8407649086005
:100E200077480068FFF75CFD002844D00120E2E627
:100E3000E069002825D06D484030006A0121084350
:100E40006A4940310862FFF7A9FC054606E0FFF752
:100E5000A5FC401B022801D90320CCE663484030A2
:100E6000006A022108400028F1D0604840686549C6
:100E7000084065498988C905C90908435B49486034
:100E800019E05A484030006A400840005749403154
:100E90000862FFF783FC054606E0FFF77FFC401B76
:100EA000022801D90320A6E650484030006A0221FA
:100EB00008400028F1D1042120680840042878D196
:100EC0004A4880683821084020280BD147484030E4
:100ED000C0690221084000286BD0A068002868D1B2
:100EE000012088E6A06800282CD000BF3F48403091
:100EF000C069400840003D494031C8610846C069AA
:100F00000421884339494031C86100BFFFF746FCDE
:100F1000054607E0FFF742FC401B3C49884201D9E7
:100F2000032068E631484030C069022108400128AA
:100F3000F0D02E480069032109048843E168084382
:100F40002A49086100BFA068012808D1274840301D
:100F5000C0690121084325494031C86121E0A068EA
:100F600005280FD121484030C069042108431F499A
:100F70004031C8610846C069012108431B4940311E
:100F8000C8610EE019484030C06940084000174968
:100F90004031C8610846C069042188431349403183
:100FA000C86100BFA068002814D0FFF7F7FB054612
:100FB00008E033E0FFF7F2FB401B1449884201D9F7
:100FC000032018E609484030C06902210840002883
:100FD000F0D023E0FFF7E2FB054619E0FFF7DEFB68
:100FE000401B0A49884213D9032004E6001002403E
:100FF00000200240F43000080000002000366E019E
:10100000C4000020FFFF00FE4001FF1F8813000006
:101010000348C069022108400028DFD10020EAE52A
:101020004010024070B504462546681E09498842B2
:1010300001D901200CE0681E074948610321081FFF
:1010400000F0C8F9002004498861072008610020E9
:1010500070BD0000FFFFFF0000E000E001460868EF
:10106000C068FF22213290430A68D0600868406956
:10107000400840000A6850610020488720223E2036
:10108000425400207047000038B504460E488442A0
:1010900019D10E492068884215D12046FFF7DEFF9E
:1010A00000BF002000902068006800902068406821
:1010B000009000BF00BF2046FFF776FB00200449E8
:1010C000087001F02FFE38BDCC0000200038014030
:1010D00092000020FEB50446206805682068C668B6
:1010E00020684769002001902807000F01900198AF
:1010F00000280BD120202840002807D02020304095
:10110000002803D0204600F0EEF9FEBD019800282B
:1011100059D0F807C00F002804D1FF2021303040FB
:10112000002850D0E807C00F002808D0FF20013069
:101130003040002803D0206C0121084320640420A3
:101140002840002807D0F807C00F002803D0206CE3
:1011500002210843206402202840002807D0F80715
:10116000C00F002803D0206C04210843206408200D
:101170002840002807D0F807C00F002803D0206CB3
:10118000082108432064206C00281BD02020284020
:10119000002806D020203040002802D0204600F051
:1011A000A2F9206C08210840002806D0204600F053
:1011B00079F92046FFF768FF04E02046FFF764FF57
:1011C00000202064A1E710202840002811D0102022
:1011D000304000280DD000BF00200090206800683B
:1011E000009020684068009000BF00BF204600F0DB
:1011F0001AF880202840002807D08020304000289E
:1012000003D0204600F086FA7FE7402028400028DF
:1012100007D040203040002803D0204600F053F98A
:1012200073E700BF71E77047704710B503463E2073
:10123000C05C202832D1002901D0002A01D1012030
:1012400010BD00BF3C20C05C012801D10220F7E79F
:1012500001243C20C45400BF59631A875A870020D8
:10126000186422243E20C45400BF00243C20C454EF
:1012700000BF1868C068FF24013420431C68E06088
:1012800018684069012420431C6860611868C068C0
:10129000202420431C68E0600020D1E70220CFE733
:1012A00010B504460648844209D1064920688842A0
:1012B00005D10548007801F0CFFD01F033FD10BDE8
:1012C000CC0000200038014093000020FFB583B01F
:1012D00004460D461746002001903D20005D202861
:1012E00071D1002D01D0002F02D1012007B0F0BD37
:1012F00001210903A068884208D12069002805D18E
:10130000E807C00F002801D00120EFE700BF3C2014
:10131000005D012801D10220E8E701213C200155B0
:1013200000BF0020206421213D200155FFF736FA3F
:1013300001902786678601210903A068884205D1AC
:101340002069002802D10026029502E02E460020E6
:1013500002901EE006980090002280212046019B0A
:1013600000F011FA002801D00320BFE7002E09D1B8
:1013700002980088C005C00D216848600298801C52
:10138000029003E0307821684860761C608E401E31
:101390006086608E0028DDD10698009000224021F2
:1013A0002046019B00F0EFF9002801D003209DE7C3
:1013B00020213D20015500BF00213C20015500BFE8
:1013C000002093E7FFE7022090E7704700BFFEE7A9
:1013D0007047000010B5002819DA1A4A03071B0FDE
:1013E000083B9B089B00D2588307DC0EFF23A340D9
:1013F0009A438B071B0E8407E40EA3401A43114B3C
:101400000407240F083CA408A4001A5118E00E4A4F
:1014100003231B02D21883089B00D2588307DC0EDB
:10142000FF23A3409A438B071B0E8407E40EA340BF
:101430001A43054B032424021B198408A4001A51E3
:1014400010BD00001CED00E000E100E070477047B7
:1014500010B5FFF72BFA10BD10B50E484068000C10
:1014600000040D49098889B208430A4948600846C2
:1014700040680A490840084940318988C905C909B6
:10148000084304494860C80305498860C820FEF73E
:10149000CDFE10BD001002400001FF1FFFFF00FE47
:1014A00000ED00E00168C968FF2221329143026823
:1014B000D1600168496949084900026851612022E8
:1014C0003E210A54704710B504462068C068402188
:1014D00088432168C86020213D2001552046FFF740
:1014E00074FF002010BD70B504463E20005D222828
:1014F0003BD101210903A06888420CD12069002852
:1015000009D1656B20684068C005C00D2880606BFC
:10151000801C606306E020684068C1B2626B501CAA
:1015200060631170608F401E80B2608700281AD1FE
:101530002068C068202188432168C8602068C0688E
:10154000FF21013188432168C86020684069400854
:1015500040002168486120213E2001552046FFF7C8
:101560009FFE002070BD0020FCE70220FAE700008B
:10157000FEB5044620680069012149038843E168FB
:101580000843216808612169A0680843616908432C
:1015900002902068C0685E490840029908432168AB
:1015A000C860E0690290206840690121C90288434F
:1015B00002990843216848612068406903210902B3
:1015C0008843A1690843216848610121C902E06993
:1015D00088424ED1FFF7B0FA0546626851001922E1
:1015E0006A431046FEF784FD06466421FEF780FD3F
:1015F00007016268510019226A431046FEF778FD20
:1016000006466268510019226A431046FEF770FDD3
:1016100064210090FEF76CFD64214843301AC0003D
:1016200032300190FEF764FDF821084040003F1879
:101630006268510019226A431046FEF759FD0646BA
:101640006268510019226A431046FEF751FD642179
:101650000090FEF74DFD64214843301AC00032303F
:101660000190FEF745FD4007400F3818216888605B
:101670004CE0FFF761FA05466268910019226A435F
:101680001046FEF735FD06466421FEF731FD0701E1
:101690006268910019226A431046FEF729FD06464A
:1016A0006268910019226A431046FEF721FD642109
:1016B0000090FEF71DFD64214843301A00013230CE
:1016C0000190FEF715FDF02108403F186268910077
:1016D00019226A431046FEF70BFD06466268910028
:1016E00019226A431046FEF703FD64210090FEF7BD
:1016F000FFFC64214843301A000132300190FEF7AC
:10170000F7FC0007000F381821688860FEBD000054
:10171000F3E9FFFF10B501463D20405C212830D1A0
:10172000012424038868A0420ED1086900280BD147
:10173000CA6A086800681088C005C00D0C6860603F
:10174000C86A801CC86208E0CB6A0868006818781C
:101750000C686060C86A401CC862488E401E80B237
:10176000488600280BD10868C0688024A0430C6814
:10177000E0600868C068402420430C68E0600020F6
:1017800010BD0220FCE7FFB581B004460D461746A8
:101790000A9E24E0701C002821D0002E05D0FEF700
:1017A000FDFF0499401AB04219D92068C068FF2192
:1017B000A13188432168C860206840694008400022
:1017C0002168486120213D2001553E20015500BF80
:1017D00000213C20015500BF032005B0F0BD20686A
:1017E00000682840A84201D1012000E00020B84252
:1017F000D0D00020F1E710B501F08EF810BDF8B59B
:1018000082B28BB2040C0D0C1046584300212646C0
:101810005E43370C36048019794116466E43370C07
:1018200036048019794126466E438919F8BD30B4D3
:101830007446641E2578641CAB4204D3635D5B0070
:10184000E31830BC18471D46F8E702E008C8121F2D
:1018500008C1002AFAD170477047002001E001C199
:10186000121F002AFBD1704700BFFEE700B58DB004
:10187000242104A8FEF79BFC002000900190029018
:10188000039002200490C0010890002009900D48A8
:10189000008880B20A9004A8FFF7A8F9002801D0B8
:1018A000FFF7E2FF072000900020019002900390D4
:1018B00000216846FFF75CF8002801D0FFF7D4FF4D
:1018C0000DB000BD0001FF1F04480078002801D1C1
:1018D0000120704701480078FBE7000088000020E5
:1018E0000B48007800280FD00A48007803280BD254
:1018F0000948007807490978884202DA05480078E3
:10190000704705480078FBE702480078F8E70000D8
:1019100089000020880000208A00002010B50020E7
:101920000649087006490870012006490870FEF74C
:1019300035FF0549086000F01DF810BD8800002043
:10194000890000208A0000208C00002001460F2220
:10195000032900D90321002901D040200243022994
:1019600001D320200243032901D310200243500653
:10197000400E704770B5FFF7B3FF0546FFF7E6FF6F
:1019800004462146072000F0E3FB70BD10B518485F
:101990000078002803D017480078032800D310BD32
:1019A000FEF7FCFE044614480068201AFA2800D20C
:1019B000F5E71148046011480078032804D3FFF7C5
:1019C00083FF0E4908700EE00C480078401C0B495C
:1019D00008700846007807490978884203DA054804
:1019E000007806490870FFF7C5FF00BFD7E7000081
:1019F00089000020880000208C0000208A00002040
:101A000010B50446002C01D0012000E00020084958
:101A1000087008460078002807D0FFF755FF0549F1
:101A20000870FEF7BBFE04490860FFF7A3FF10BD76
:101A3000890000208A0000208C00002010B5044698
:101A4000032C00D903240F4804700078032803D323
:101A500003200D49087012E00B4800780949097805
:101A6000884204DA074800780749087007E006480A
:101A70000078002803D1FFF727FF03490870FFF71C
:101A800079FF10BD880000208A0000200020014955
:101A900008707047900000200148007870470000EF
:101AA00090000020002801D0012100E00021014A1F
:101AB000117070479000002010B500F0BFFB01F0DE
:101AC00005FB00F093FCFFF729FFFFF7DFFF002085
:101AD0000149086010BD000084000020FEB5002010
:101AE00000F0F6F805460220284000280ED05048A5
:101AF0000068012108434E49086000F091FB06464A
:101B000000F06CFC0746314600F056FE04202840E9
:101B100000280FD046480068012108434449086066
:101B200000F062FA002801D1012000E00020064602
:101B300000F0B0FA042000F0CBF8022108400028A1
:101B400007D03B480068102108433949086000F07D
:101B50007BFB052000F0BCF802210840002809D0DA
:101B600033480068202108433149086001F0B4FA85
:101B700000F04AFC032000F0ABF8022108400028E6
:101B800007D02B480068082108432949086000F065
:101B900087FC012000F09CF802210840002806D0B4
:101BA0002348006808432249086000F04DFCFFF715
:101BB000EDFE6A4601A902A800F0DAFD002820D057
:101BC000002668460079502801D903260AE06846B5
:101BD00000793C2801D9022604E0684600791E28D5
:101BE00000D901266846007AFFF75CFF6846007A54
:101BF000FFF706FF3046FFF721FF009800F008FCD2
:101C000000BF022000F0BAF8044606202040002859
:101C100005D00748006804210843054908600220F0
:101C20002040002801D000F0DFFD00F08BFBFEBD5E
:101C30008400002010B5002408E02201054BD218D2
:101C400091882201985800F019F8641C062CF4D3EE
:101C500010BD00000400002010B5002408E022019F
:101C6000054BD21891882201985800F01CF8641C8A
:101C7000062CF4D310BD00000400002030B585B060
:101C800005460C4614216846FEF791FA00940020A0
:101C90000190012002900020039069462846FEF73B
:101CA00093FC05B030BD30B585B005460C46142117
:101CB0006846FEF77CFA0094012001900020029013
:101CC000039069462846FEF77FFC05B030BD000052
:101CD00010B50146062901DB002010BD0801054BA7
:101CE000C018C26800200B01024C1B19D8601046B6
:101CF000F3E700000400002038B500BF1C48406B2B
:101D0000012108431A4948630846406BC007C00FC9
:101D1000009000BF00BF00BF0846406B022108438F
:101D2000134948630846406B02210840009000BFF9
:101D300000BFFEF733FD0F490860002411E00020CA
:101D400021010D4A8918887121018918C871210162
:101D50008918088121018918887221018918C860B1
:101D6000641C062CEBD3FFF765FFFFF775FF38BD4A
:101D700000100240640000200400002001460629F3
:101D800001DB002070470801014A8018C068F9E7AC
:101D900004000020F8B5FEF701FD06463F48006844
:101DA000301A0A2800D2F8BD3C480660FFF742FF0F
:101DB00000256DE028013A494418022D02D1FF2088
:101DC0002D3000E050200090A1882068FEF7D6FC5E
:101DD000002801D1012000E000200746A079B84288
:101DE00027D0E079032802D2E079401CE071E07945
:101DF000032820D3A7710020E071A079002807D024
:101E000000202081A0720121E0680843E06012E018
:101E1000002D01D0022D04D1A07A002801D010207D
:101E200000E00220E1680843E06000202081A07209
:101E300001E00020E071A079002828D0208919490C
:101E4000884202D22089401C2081002D01D0022D21
:101E50000DD1A07A00280AD121890098814206DBA1
:101E60000120A0720421E0680843E0600FE0002D2B
:101E70000DD1A07A00280AD000BF20891421FEF7D6
:101E800037F9002903D10821E0680843E0606D1CA0
:101E9000062D8FD3FFF7E0FE00BF84E7640000202B
:101EA00004000020FFFF000010B5002409E0E2005C
:101EB000054BD2189188E20098580122FEF767FC82
:101EC000641C082CF3D310BD7431000810B5002435
:101ED00009E0E200054BD2189188E20098580122EF
:101EE000FEF755FC641C082CF3D310BDB431000878
:101EF000002003E00021034A1154401C0828F9D3B4
:101F0000704700006800002010B586B00446142118
:101F100001A8FEF74CF9A088019001200290002052
:101F20000390049001A92068FEF74EFB06B010BD97
:101F300038B500BF2648406B012108432449486357
:101F40000846406BC007C00F009000BF00BF00BF35
:101F50000846406B022108431D4948630846406B10
:101F600002210840009000BF00BF00BF1848406B2E
:101F700004210843164948630846406B0421084081
:101F8000009000BF00BF002405E0E100114A88185E
:101F9000FFF7BAFF641C082CF7D3002405E0E1002A
:101FA0000D4A8818FFF7B0FF641C082CF7D3FFF721
:101FB0009FFFFFF779FFFFF789FF012007490870AE
:101FC000002007490870FEF7E9FB0649086038BDA4
:101FD0000010024074310008B4310008780000207D
:101FE0007000002074000020014800787047000055
:101FF0007800002010B5FEF7D1FB044621480068A8
:10200000201A00D110BD1F4804601F480078002826
:1020100004D1FFF749FFFFF759FFF3E7FFF744FF4C
:102020001A480078082811D21848007800F046F8BD
:10203000164A1278D200164BD2189188134A127899
:10204000D20098580022FEF7A2FB0EE00F4800785D
:10205000082808D100F052F80D4A91881068002233
:10206000FEF795FB01E000F07DF808480078401C81
:102070000649087008460078092801D90020087030
:1020800000BFBFE77400002078000020700000202F
:102090007431000810B50446002C01D0012000E086
:1020A00000200549087008460078002803D1FFF792
:1020B000FBFEFFF70BFF10BD78000020F8B50546CA
:1020C0000C48465D002412E00120A040304000286A
:1020D00001D1012000E000200746E200064BD218A3
:1020E0009188E20098583A46FEF751FB641C082C90
:1020F000EAD3F8BD68000020B4310008F8B500F05C
:1021000095F80546FFF7C8FC064600241AE00127AB
:10211000032C06D20120A0402840002801D000272F
:1021200006E0002E04D0032C01D0042C00D100279F
:10213000E200064BD2189188E20098583A46FEF722
:1021400026FB641C082CE2D3F8BD0000B431000863
:10215000082800D37047024A115400BFFAE7000074
:1021600068000020F8B500F0ABFF0546002D01D156
:10217000052004E0012D01D1062000E007200646DD
:1021800000240EE0B44201D0012300E000231A46EF
:10219000E3000F4FDB199988E300F858FEF7F7FAD0
:1021A000641C082CEED3032D01D1032200E0002291
:1021B000D200084BD2189188032D01D1032200E0F0
:1021C0000022D200034B98580022FEF7E0FAF8BD37
:1021D000B431000874310008FEF774FB002801D008
:1021E000FFF742FBFFF742FB0C48FEF75DF800F0FB
:1021F00039F8FFF781FDFFF79BFEFFF75DFC00F06C
:102200003FFB09E0FFF7C6FDFFF7F4FEFFF766FCB2
:1022100000F0C6FB00F05EFAF4E70000881300004F
:1022200001480078704700007900002002480178DA
:1022300001208840C0B27047790000200020014989
:10224000087070477900002005480078401C044958
:10225000087008460078032801DB002008707047EA
:102260007900002010B500F03DF8002803D10320CC
:10227000400300F001F810BD10B586B004461821E7
:102280006846FDF794FF6846FEF736F803214903D8
:1022900005980840A04201D106B010BDFEF77AF9BA
:1022A000002803D1FEF75CF9002801D0FFF7DCFA23
:1022B0000820009003204003049005946846FEF730
:1022C0003BF8002805D0FEF739F9FEF703F8FFF7D1
:1022D000CBFAFEF733F9FDF7FDFFFEF723F900BF58
:1022E000FEE7000000B587B0142102A8FDF75FFFEC
:1022F00000BF1348406B0121084311494863084659
:10230000406BC007C00F019000BF00BF01200290CA
:1023100000200390012004900020059002A90520D0
:102320000007FEF751F9012105200007FEF726FA04
:10233000002802D1012007B000BD0020FBE700000B
:102340000010024010B50220FFF7C2FC0421084033
:10235000002802D00803FFF78FFF10BD10B5044618
:102360000848844201D8002010BD0A21601DFDF7F5
:10237000BFFE0449884201D80120F5E70020C04390
:10238000F2E70000E7030000F8B507460D461646E1
:10239000002D05D164213846FDF7AAFEC4B210E035
:1023A000012D09D10A213846FDF7A2FE0A2100902D
:1023B000FDF79EFE0C4604E00A213846FDF798FE24
:1023C0000C4668B2864204D10348005D8021084370
:1023D000F8BD0148005DFBE7F431000802480068E1
:1023E0007D21C900484370478000002010B50020BF
:1023F000034908600349086000F0A0F810BD000020
:102400007C0000208000002010B500F097F810BD7F
:1024100070B505467D21C9002846FDF769FE0446D2
:102420007D21C9002846FDF763FEFF20F53081427B
:1024300003D3601C002800D0641C0248046000F034
:102440007DF870BD7C00002070B500F033FE0546BD
:1024500029461148006800F0B5F80446204600F00F
:102460004BF8002816D00D48844201D8641E09E0BC
:102470000A21601DFDF73CFE0849884201D80A3C4C
:1024800000E0643C2946204600F0D0F8024908608C
:1024900000F054F870BD000080000020E703000049
:1024A00070B500F007FE054629461148006800F0A7
:1024B00089F80446204600F01FF80E49884216D2DB
:1024C0000846844201D8641C09E00A21601DFDF71A
:1024D0000FFE0849884201D80A3400E064342946D6
:1024E000204600F0A3F80249086000F027F870BD0C
:1024F00080000020E703000070B505460E488542C5
:1025000001D82C4612E00A21681DFDF7F1FD0A49A9
:10251000884205D80A21681DFDF7EAFD044605E05A
:10252000642128463230FDF7E3FD04460248844228
:1025300000D970BDA0B2FCE7E7030000F0B585B09C
:1025400000F0B8FD00901D480099006800F03AF8CE
:1025500006461B480099006800F034F804903046A5
:10256000FFF7CAFF03900498FFF7C6FF02903046BA
:10257000FFF7F4FE01900498FFF7F0FE05460024F3
:1025800017E02146019A0398FFF7FEFE0746611CFB
:10259000C8B23946FFF7DCFD2A4621460298FFF70C
:1025A000F3FE0746211DC8B23946FFF7D1FD601C76
:1025B000C4B2032CE5D305B0F0BD00007C000020C0
:1025C00080000020F8B504460F46002F01D12046B8
:1025D000F8BD012F0DD120461049FFF710F9104B1F
:1025E0000022C51851415A0000232846FDF796FDE8
:1025F000EEE7022F03D1204664214843E8E7204656
:102600000849FFF7FCF8084B0022C51851415A0051
:1026100000232846FDF782FDDAE700008E3602002F
:1026200088130000448F0F0020A10700F8B504466E
:102630000F46002F01D12046F8BD012F0DD12046B5
:102640001149FFF7DCF8114B0022C51851415A001F
:1026500000232846FDF762FDEEE7022F05D1642135
:1026600020463230FDF744FDE6E720460849FFF7F3
:10267000C6F8084B0022C51851415A0000232846CD
:10268000FDF74CFDD8E7000044850A00404B4C00A4
:10269000B9F60E0020A10700014608784A78120218
:1026A00010438A7812041043CA7812061043704708
:1026B00001700A04120E42700A02120E82700A0E93
:1026C000C270704710B500221146042000F02EF9A8
:1026D00010BD000010B5FEF761F8044600F020F9C7
:1026E000002800D010BD09480068201A7D21C900CB
:1026F000884200D2F6E700221146022000F016F9C7
:10270000002801D00148046000BFEBE7B8000020BA
:1027100001B568460078002805D068460078012891
:1027200001D0002008BD01226946104600F0FEF8E5
:10273000F8E700007CB504460D46002C07D00B4896
:10274000844204D8284600F065F8002801D1002012
:102750007CBD21466846FFF7ABFF68460571052240
:102760006946032000F0E2F8F2E70000605AF40541
:1027700010B50346002B07D0002905D0002A03D04E
:1027800009480078002801D1002010BD07480078D2
:10279000187007480078087006480068106000202C
:1027A000014C20700120F0E7AF000020B0000020B5
:1027B000B1000020B400002070B504460D4600F0C2
:1027C000AFF8002801D0002070BD0648007800282E
:1027D00002D0FFF777FFF7E729462046FFF7AAFF69
:1027E000F2E70000BC00002010B500F099F80028C6
:1027F00001D0002010BD06480078012801D001203A
:1028000000E0002004462046FFF782FFF2E70000C8
:10281000BD0000200146022901D801207047002098
:10282000FCE70346012B1FD0022B0ED1062A0AD14A
:102830000878002802D00878012804D14878642854
:1028400001D8012070470020FCE7032B01D0042BA6
:1028500008D1012A04D10878022801D80120F1E723
:102860000020EFE70120EDE7012A07D108780028D2
:1028700002D00878012801D10120E3E70020E1E738
:1028800010B500F0C9FA00F057F90020144908709B
:1028900014490870144908601449087014490870F4
:1028A0001449087001201449087000201349087069
:1028B000134908701349087013490860FDF76EFF4B
:1028C00012490860002012490870002404E000202A
:1028D00010490855601CC4B2302CF8D310BD00005C
:1028E000A4000020A5000020A8000020AC000020CB
:1028F000AD000020AE000020BD000020AF00002091
:10290000B0000020B1000020B4000020B80000207A
:10291000BC0000207001002010B500F08DF910BD42
:102920000148007870470000A400002070B50546FB
:102930000E461446302C03D8002C06D0002E04D1AD
:10294000062014490870002070BD00F0DBF8002854
:1029500004D103200F4908700020F5E700F008FAC1
:102960000D48057001200B49087022463146284663
:1029700000F04EFB002806DA00F0D8F805200549E3
:1029800008700020E0E7FDF709FF643003490860A4
:102990000120D9E7AC000020A5000020A8000020FD
:1029A00010B58EB000F06AFB49480078002875D059
:1029B00000F0F0F9002873D00CAA69460DA800F0C9
:1029C000EFF900286CD008A8007D424909788842B8
:1029D00001D00EB010BD08A8027C6946007DFFF74B
:1029E00020FF002805D106203B49087000F09EF822
:1029F000EFE708A8007D3949087008A8007C38492D
:102A00000870002405E06846005D36490855601CE2
:102A1000C4B208A8007C8442F5DB30480078012865
:102A200008D12F480078012804D12E4800782E497B
:102A300008702DE029480078022815D12848007830
:102A4000062811D127480078284908702548407881
:102A5000274908702348801CFFF71EFE254908609F
:102A600001202549087013E01C480078032803D092
:102A70001A48007804280BD119480078012807D19A
:102A800018480078012800D100E000201B49087098
:102A900002201149087000F049F89AE70CE0FFE7BE
:102AA000FDF77CFE16490968401A0ED404200A4935
:102AB000087000F03BF808E000F06CF9002804D042
:102AC0000CAA69460DA800F06BF900BF81E7000071
:102AD000A4000020A5000020AC000020AD000020D4
:102AE000AE00002070010020BD000020B0000020DA
:102AF000B1000020B4000020AF000020BC00002086
:102B0000A800002000BFEFF310821146002072B62B
:102B1000054A1278002A03D10122034B1A700120C2
:102B2000002900D162B67047A400002000200149AE
:102B300008707047A400002000B587B0142102A8D7
:102B4000FDF735FB00BF3648406B0221084334498E
:102B500048630846406B02210840019000BF00BF57
:102B600000BF2F4840300068490308432C494031DA
:102B7000086008460068012189030840019000BFF1
:102B800000BF102002900220039001200490022038
:102B900005900120069002A92248FDF715FD00BF0F
:102BA000002121484177817700BF20481E49203904
:102BB0000860E1204002486000211B482038816005
:102BC000C16001610C21416100218161C16100206E
:102BD0001549203908620846FDF72EFE002801D06D
:102BE000FEF742FE0120124908700F482038FDF719
:102BF000DBFD002801D0FEF737FE00200D490870EC
:102C0000002211461B20FDF7A9FE1B20FDF79AFEAE
:102C100000F088F8002801D1FEF726FE07B000BDBD
:102C20000010024000040050EC0000200038014079
:102C3000910000209200002010B504480078002880
:102C400002D00348FEF746FA10BD000091000020B4
:102C5000CC000020F8B504460D4616460E48007814
:102C6000002803D0002C01D0002D02D10020C04349
:102C7000F8BD00F035F833462A4621460748FEF7EE
:102C800025FB074600F00CF8002F01D12846EFE79E
:102C90000020C043ECE7000091000020CC000020A1
:102CA00010B50C480078002813D00B480078002895
:102CB00009D00A48FDF778FD002801D0FEF7D4FDC1
:102CC00000200549087000F02DF8002801D1FEF71A
:102CD000CBFD10BD9100002092000020CC00002010
:102CE00010B50D480078002814D00C480078002852
:102CF00010D10B48FEF7B2F9002801D0FEF7B4FD61
:102D00000748FDF775FD002801D0FEF7ADFD012055
:102D10000249087010BD00009100002092000020C0
:102D2000CC00002010B50848807F202809D101225E
:102D3000064905482038FEF778FA002801D000201F
:102D400010BD0120FCE70000EC00002093000020F3
:102D500030B503460C461D19E8B2002104E0555C6D
:102D60002D18E8B24D1CE9B29942F8DB30BD0000E5
:102D700010B500BFEFF31080044672B6002004497E
:102D8000087000F001F9002C00D162B610BD0000FF
:102D9000A00000200148007870470000A00000203B
:102DA00070B503460C4600BFEFF31080054672B6BF
:102DB000002B0BD0002A09D013480078002805D03A
:102DC00012480078002806D0002C04D1002D00D134
:102DD00062B6002070BD0E48007818700B4800786D
:102DE0001070002104E00B48405C6054481CC1B2E4
:102DF000064800788142F6DB0020034E3070002D3B
:102E000000D162B60120E5E7A0000020A20000206A
:102E1000A10000204001002010B500F0B5F800200E
:102E2000084908700849087008490870002406E03D
:102E300000200749085507490855601CC4B2302CCA
:102E4000F6D310BDA0000020A1000020A2000020A9
:102E5000100100204001002010B504463F480078D2
:102E60000300FEF7E4FC06040A1425364E72AA2C71
:102E700002D10120394908706AE0552C03D10220A3
:102E80003649087002E0204600F09CF860E0302CE3
:102E900003D9204600F096F809E03148047000207C
:102EA000304908703048047003202C4908704FE006
:102EB0002E4804702C48007800192B4908702848C7
:102EC0000078002801D1052000E004202349087083
:102ED0003EE02748234909784454234800780019E4
:102EE000214908701F480078401C1E490870084698
:102EF00000781B490978884202DB052017490870D1
:102F000026E01948007884421BD11A48007800282E
:102F100017D116490978184A117011490978174ACA
:102F2000117000BF05E01249095C154A1154411C9B
:102F3000C8B20B4909788842F5DB01210D4A1170AE
:102F400000BF002000F03EF802E000F01DF800BFD6
:102F500000BFFDF723FC0B49086010BD9400002062
:102F60009500002097000020980000209600002087
:102F700010010020A0000020A1000020A2000020DD
:102F8000400100209C00002010B500200749087077
:102F90000749087007490870074908700749087011
:102FA000FDF7FCFB0649086010BD000094000020FE
:102FB0009500002096000020970000209800002037
:102FC0009C00002010B50446AA2C03D101200A4918
:102FD000087002E0002008490870002007490870C6
:102FE000074908700749087007490870FDF7D6FBC4
:102FF0000649086010BD00009400002095000020E4
:103000009600002097000020980000209C000020DF
:10301000F0B591B007460E461446302C03D9002077
:10302000C04311B0F0BD002C03D0002E01D1701EA2
:10303000F7E7FFF7A9FFAA216846017355214173FD
:103040008473C773002505E0715D281D03AA115420
:10305000681CC5B2A542F7DB324639462046FFF769
:1030600077FE0290211D03AA02985054601D019022
:10307000642203A80199FFF7EDFDD2E710B50B48D4
:103080000078002810D0FDF789FB09490968401A2B
:10309000642809D300BFEFF31080044672B6FFF72F
:1030A00073FF002C00D162B610BD00009400002018
:1030B0009C00002001480078704700007A00002042
:1030C00001480078704700007A0000200020014984
:1030D000087070477A00002005480078401C0449B9
:1030E000087008460078042801DB0020087070474B
:1030F0007A00002000000000000000000000000036
:1031000000000000000000000000000000000000BF
:1031100000000000010000000200000003000000A9
:103120000400000006000000070000000800000086
:103130000900000000000000000000000000000086
:103140000000000001000000020000000300000079
:103150000400000000093D0000127A000000000099
:103160000000000000366E01006CDC020000000070
:10317000000000000004005040000000000000506B
:103180000200000000000050040000000000005099
:103190001000000000000050080000000004005073
:1031A00001000000000000508000000000080050F6
:1031B0000100000000000050010000000004005069
:1031C000020000000004005008000000000400504D
:1031D00004000000000400508000000000080050BF
:1031E00002000000000000504000000000000050FD
:1031F000200000003F065B4F666D7D077F6F00007B
:103200005801FF1F6C01FF1F1C01FF1F1C01FF1F46
:103210001C01FF1F3001FF1F1C01FF1F1C01FF1FAE
:1032200000093D0000127A000000000000000000CC
:1032300000366E01006CDC0200000000000000009F
:103240006032000800000020CC0000004A1800088E
:103250002C330008CC000020EC0400005A180008B1
:1032600000366E0100000050010000000000000068
:1032700000000000000800500200000000000000F4
:10328000000000000004005080000000000000006A
:1032900000000000000400500400000000000000D6
:1032A00000000000000400500200000000000000C8
:1032B00000000000000400500800000000000000B2
:1032C00000000000000000000000000000000000FE
:1032D00000000000000000000000000000000000EE
:1032E00000000000000000000000000000000000DE
:1032F00000000000000000000000000000000000CE
:1033000000000000000000000000000000000000BD
:1033100000000000000000000000000000010000AC
:0C3320000000000004000000010000009C
:04000005080000C12E
:00000001FF
