:020000040800F2
:10000000000C0020450A0008ED080008EF08000871
:1000100000000000000000000000000000000000E0
:10002000000000000000000000000000F1080008CF
:100030000000000000000000F3080008F5080008B8
:10004000000000000000000000000000950A000809
:10005000950A0008950A0008950A0008950A000804
:100060000000000000000000000000000000000090
:10007000950A0008950A0008950A0008000000008B
:1000800000000000950A000800000000950A000822
:10009000000000000000000000000000950A0008B9
:1000A00000000000950A000800000000950A000802
:1000B0000000000000000000000000000000000040
:1000C000002243088B4274D303098B425FD3030A97
:1000D0008B4244D3030B8B4228D3030C8B420DD3AA
:1000E000FF22090212BA030C8B4202D31212090238
:1000F00065D0030B8B4219D300E0090AC30B8B4276
:1001000001D3CB03C01A5241830B8B4201D38B0323
:10011000C01A5241430B8B4201D34B03C01A5241C8
:10012000030B8B4201D30B03C01A5241C30A8B420B
:1001300001D3CB02C01A5241830A8B4201D38B02F6
:10014000C01A5241430A8B4201D34B02C01A52419A
:10015000030A8B4201D30B02C01A5241CDD2C3090C
:100160008B4201D3CB01C01A524183098B4201D388
:100170008B01C01A524143098B4201D34B01C01A73
:10018000524103098B4201D30B01C01A5241C308EB
:100190008B4201D3CB00C01A524183088B4201D35A
:1001A0008B00C01A524143088B4201D34B00C01A46
:1001B0005241411A00D20146524110467047FFE7B2
:1001C00001B5002000F0F0F802BDC0460029F7D0CC
:1001D00076E7704703460B437FD4002243088B42E7
:1001E00074D303098B425FD3030A8B4244D3030BBE
:1001F0008B4228D3030C8B420DD3FF22090212BA83
:10020000030C8B4202D31212090265D0030B8B42FE
:1002100019D300E0090AC30B8B4201D3CB03C01AE8
:100220005241830B8B4201D38B03C01A5241430BC3
:100230008B4201D34B03C01A5241030B8B4201D3B3
:100240000B03C01A5241C30A8B4201D3CB02C01A1E
:100250005241830A8B4201D38B02C01A5241430A96
:100260008B4201D34B02C01A5241030A8B4201D385
:100270000B02C01A5241CDD2C3098B4201D3CB012C
:10028000C01A524183098B4201D38B01C01A5241DB
:1002900043098B4201D34B01C01A524103098B42DF
:1002A00001D30B01C01A5241C3088B4201D3CB00CA
:1002B000C01A524183088B4201D38B00C01A5241AD
:1002C00043088B4201D34B00C01A5241411A00D25D
:1002D00001465241104670475DE0CA0F00D04942C6
:1002E000031000D34042534000229C4603098B4236
:1002F0002DD3030A8B4212D3FC22890112BA030ABE
:100300008B420CD3890192118B4208D3890192113F
:100310008B4204D389013AD0921100E08909C309C4
:100320008B4201D3CB01C01A524183098B4201D3C6
:100330008B01C01A524143098B4201D34B01C01AB1
:10034000524103098B4201D30B01C01A5241C30829
:100350008B4201D3CB00C01A524183088B4201D398
:100360008B00C01A5241D9D243088B4201D34B00B3
:10037000C01A5241411A00D20146634652415B10F5
:10038000104601D34042002B00D5494270476346D6
:100390005B1000D3404201B5002000F005F802BD1B
:1003A0000029F8D016E770477047C04610B5064CD4
:1003B0002378002B07D1054B002B02D0044800E026
:1003C00000BF0123237010BD0400002000000000C6
:1003D000F00A0008044B10B5002B03D00349044871
:1003E00000E000BF10BDC046000000000800002073
:1003F000F00A000882B00023019302E0019B013360
:100400000193019B8342F9D302B0704710B5174A9C
:10041000116880235B000B43136001E0012909D0C0
:10042000124B1A688023DB00110019401A42F5D0E4
:100430000121F3E70D4B9A680D490A409A609A68CA
:1004400007218A439A60094B9B6838221A42FAD1E5
:10045000064A936807490B409360074C200000F060
:1004600083FA200000F090FA10BDC0460010024050
:10047000FFF0FFFFFF8FFFFF00366E0110B5FFF7A3
:10048000C5FF00F0BDF800F0CDF9442000F024FADB
:100490000121002000F01AF90221012000F016F9D4
:1004A0000321022000F012F90421032000F00EF9CC
:1004B0000521042000F00AF90621052000F006F9C4
:1004C000002400F00DF90848FFF794FF0134C72C11
:1004D000F7D9064B187801300A21FFF761FFC9B23E
:1004E000002000F0F3F8EBE7B80B00002400002038
:1004F000C30723D5A023DB0501229A62830722D5F7
:100500001D4B02229A62430721D51B4B08229A6297
:10051000030720D5184B04229A62C3061FD5164B39
:1005200001229A6283061ED5144B02229A6240066B
:100530001DD5A023DB0540229A627047A023DB056E
:1005400001229A61DAE70C4B02229A61DBE70A4B3F
:1005500008229A61DCE7084B04229A61DDE7064B2A
:1005600001229A61DEE7054B02229A61DFE7A023B0
:10057000DB0540229A61E0E70004005000080050CB
:10058000A023DB0502229A6102329A610C329A6141
:10059000083A9A61174A80219161996140239361D9
:1005A000154B01229A61062807D88000134B1B586F
:1005B0009F46A023DB0502229A627047A023DB0539
:1005C00004229A62F9E7A023DB0510229A62F4E77D
:1005D000A023DB0508229A62EFE7064B80229A628D
:1005E000EBE7A023DB0580229A62E6E7024B0122BB
:1005F0009A62E2E70004005000080050080B00086F
:10060000F0B5D6464F464646C0B58AB004AB9846CC
:1006100018220021180000F03EFA294B5A6B0126DF
:1006200032435A635A6B32400392039A5A6B022741
:100630003A435A635A6B3A400292029A5A6B042127
:1006400089460A435A635B6B0B400193019B434607
:100650005E609F60FF230493A024E40541462000D0
:1006600000F098F9CF230493164D4146280000F07E
:1006700091F903230493144B9A464146180000F065
:1006800089F9A661AF610822AA614B46AB61AE61F0
:1006900053469F614023A3612021A161A761494680
:1006A000A1610C31A161A2617832AA61A261AB6142
:1006B00053469E610AB0E0BCBA46B146A846F0BDBA
:1006C000001002400004005000080050082804D820
:1006D0000A2900D90A21014B19547047240000202F
:1006E000F8B5A023DB050221996104269E61102242
:1006F0009A6108279F61444A802090619861402454
:100700009461424D7F38A8619861916197619661CB
:100710009061A9619C6120229A613D4B1B78052B59
:1007200017D9062B2AD0072B34D0082B1BD1394BD5
:100730001B78032B17D8022B5DD04CD8002B53D03D
:10074000012B10D14023A022D20593622E4A93623E
:1007500009E0314AD35C314AD05CFFF7C9FE2C4B2B
:100760001878FFF70DFF2A4A13780133DBB21370B4
:10077000082B02D9130000221A70F8BD264B9B7972
:10078000002BF0D07F20FFF7B3FE214B1878FFF746
:10079000F7FEE8E7224B1B78032BE4D8022B16D098
:1007A00007D8002B0BD0012B0DD1174B02229A62D8
:1007B00009E0032B07D1144B01229A6203E0A02326
:1007C000DB0501229A62104B40229A62CBE70E4B66
:1007D00008229A62F7E7032BC5D1A023DB0510227C
:1007E0009A6210329A62BEE7084B02229A62064B66
:1007F0003E329A62B7E7A023DB0520229A62024BC1
:1008000020329A62AFE7C046000400500008005052
:10081000220000202000002024000020240B0008DB
:100820002100002010B588B002AC18220021200061
:1008300000F031F9204B1A6C8021C9010A431A6477
:100840001A6C0A400192019A596B022211435963B2
:100850005B6B13400093009B10230293039204925E
:100860000F3B069307932100144800F093F8144BB4
:10087000DA6814490A40DA60134A9A60DA68134861
:100880000240DA601A690A401A61DA6810490A40BF
:10089000DA605A690F490A405A61DA680C210A4342
:1008A000DA605A6904390A435A61D9688022920190
:1008B0000A43DA6008B010BD001002400004005086
:1008C00000380140FFDFFFFFC4090000FFEFFFFF1A
:1008D000FFF9FFFFFFFCFFFF034B1B681B06FBD567
:1008E000014B58607047C046003801407047FEE732
:1008F000704770477047000082B0054B4343019337
:10090000C046019B5A1E0192002BF9D102B07047DC
:10091000B80B000010B50E494B681B0C1B040D4AA8
:1009200012681204120C13434B604B680A4A1340BE
:100930000A4A126812040A48024013434B60094BEA
:10094000802212059A60C820FFF7D6FF10BDC0466E
:10095000001002400001FF1FFFFF00FE4401FF1FC7
:100960000000FF0100ED00E010B5FA218900FFF75B
:10097000A7FB0138034B586000229A6005321A60C9
:1009800010BDC04610E000E0014B18607047C04643
:1009900000000020F0B5002409E00E69C2683A406A
:1009A0005E433243C2604A68022A22D001340A6898
:1009B0001300E34038D00123A34015001D401A4224
:1009C000F4D04B689C4602682B006B435E00F6181F
:1009D000F743B24366465E43324302604A68013AD7
:1009E000012ADAD88E6882683A405E4332438260D8
:1009F000D3E7FF2D0AD84E69026A6B436B43DD00D3
:100A0000ED1AAA43734313430362CFE74E69426A68
:100A10002D0A2B006B436B436B43DD00ED1AAA4399
:100A2000734313434362C1E74B68013B012B01D978
:100A30000020F0BDC968436893434A4313434360B1
:100A4000F6E700000D488546FFF764FF0C480D49A6
:100A50000D4A002302E0D458C4500433C4188C4219
:100A6000F9D30A4A0A4C002301E013600432A2427F
:100A7000FBD300F019F8FFF701FDFEE7000C0020A2
:100A80000000002004000020380B000804000020B3
:100A900030000020FEE703008218934200D1704727
:100AA00019700133F9E7000070B500260C4C0D4DAC
:100AB000641BA410A64209D1002600F019F80A4CC4
:100AC0000A4D641BA410A64205D170BDB300EB58BB
:100AD00098470136EEE7B300EB5898470136F2E746
:100AE000300B0008300B0008340B0008300B0008F6
:100AF000F8B5C046F8BC08BC9E467047F8B5C0467D
:080B0000F8BC08BC9E467047DA
:100B0800B2050008BC050008C6050008D0050008A5
:100B1800DA050008E2050008EC0500083F065B4F0F
:080B2800666D7D077F6F000080
:040B3000D5030008E1
:040B3400AD03000805
:040B380000366E0114
:0400000508000A45A0
:00000001FF
