:020000040800F2
:10000000000C0020C50300081504000815040008B2
:1000100000000000000000000000000000000000E0
:1000200000000000000000000000000015040008AF
:10003000000000000000000015040008150400087E
:10004000000000000000000000000000150400088F
:10005000150400081504000815040008150400081C
:100060000000000000000000000000000000000090
:10007000150400081504000815040008000000001D
:10008000000000001504000800000000150400082E
:10009000000000000000000000000000150400083F
:1000A000000000001504000800000000150400080E
:1000B0000000000000000000000000000000000040
:1000C000002243088B4274D303098B425FD3030A97
:1000D0008B4244D3030B8B4228D3030C8B420DD3AA
:1000E000FF22090212BA030C8B4202D31212090238
:1000F00065D0030B8B4219D300E0090AC30B8B4276
:1001000001D3CB03C01A5241830B8B4201D38B0323
:10011000C01A5241430B8B4201D34B03C01A5241C8
:10012000030B8B4201D30B03C01A5241C30A8B420B
:1001300001D3CB02C01A5241830A8B4201D38B02F6
:10014000C01A5241430A8B4201D34B02C01A52419A
:10015000030A8B4201D30B02C01A5241CDD2C3090C
:100160008B4201D3CB01C01A524183098B4201D388
:100170008B01C01A524143098B4201D34B01C01A73
:10018000524103098B4201D30B01C01A5241C308EB
:100190008B4201D3CB00C01A524183088B4201D35A
:1001A0008B00C01A524143088B4201D34B00C01A46
:1001B0005241411A00D20146524110467047FFE7B2
:1001C00001B5002000F006F802BDC0460029F7D0B6
:1001D00076E770477047C04610B5064C2378002B71
:1001E00007D1054B002B02D0044800E000BF0123DB
:1001F000237010BD0400002000000000600400080F
:10020000044B10B5002B03D00349044800E000BFA5
:1002100010BDC04600000000080000206004000877
:1002200010B5174A116880235B000B43136001E08F
:10023000012909D0124B1A688023DB0011001940F4
:100240001A42F5D00121F3E70D4B9A680D490A4097
:100250009A609A6807218A439A60094B9B68382202
:100260001A42FAD1064A936807490B409360074C3B
:10027000200000F091F8200000F09EF810BDC0466C
:1002800000100240FFF0FFFFFF8FFFFF00366E01FE
:1002900000B583B0FFF7C4FF1A4B1B4A9A601B4A94
:1002A0009A601B4ADA601B4ADA60196A1A4A1140DE
:1002B0001A4A0A431A625969802292020A435A6111
:1002C0005969802252040A435A61154BFF221A6071
:1002D000144B019302E0019B013B0193094B1B6905
:1002E000DB0302D5019B002BF5D1064B5969802217
:1002F00012060A435A615969802252030A435A611D
:10030000FEE7C0460020024023016745AB89EFCDE0
:100310003B2A19087F6E5D4C009FFFFFAA4000003A
:100320008020024040420F0082B0054B43430193BE
:10033000C046019B5A1E0192002BF9D102B07047B2
:10034000B80B000010B50E494B681B0C1B040D4A7E
:1003500012681204120C13434B604B680A4A134094
:100360000A4A126812040A48024013434B60094BC0
:10037000802212059A60C820FFF7D6FF10BDC04644
:10038000001002400001FF1FFFFF00FE4401FF1F9D
:100390000000FF0100ED00E010B5FA218900FFF731
:1003A0008FFE0138034B586000229A6005321A60B4
:1003B00010BDC04610E000E0014B18607047C04619
:1003C000000000200D488546FFF7BCFF0C480D4992
:1003D0000D4A002302E0D458C4500433C4188C42A0
:1003E000F9D30A4A0A4C002301E013600432A24206
:1003F000FBD300F011F8FFF74BFFFEE7000C0020E5
:1004000000000020040000208004000804000020F8
:1004100020000020FEE7000070B500260C4C0D4DBA
:10042000641BA410A64209D1002600F019F80A4C5A
:100430000A4D641BA410A64205D170BDB300EB5851
:1004400098470136EEE7B300EB5898470136F2E7DC
:1004500078040008780400087C0400087804000888
:10046000F8B5C046F8BC08BC9E467047F8B5C04613
:08047000F8BC08BC9E46704771
:040478000102000875
:04047C00D90100089A
:0404800000366E01D3
:04000005080003C527
:00000001FF
