:020000040800F2
:10000000B8050020D5000008651400082D1400086C
:1000100000000000000000000000000000000000E0
:10002000000000000000000000000000E3140008D1
:100030000000000000000000E1140008E5140008C2
:10004000000000000000000000000000E7000008C1
:10005000E7000008E7000008E7000008E7000008E4
:100060000000000000000000000000000000000090
:10007000E7000008E7000008E700000800000000B3
:1000800000000000E700000800000000E700000892
:10009000000000000000000000000000E700000871
:1000A00000000000E7000008000000003B1B000803
:1000B0000000000000000000000000000000000040
:1000C0000348854600F08EF800480047E91F000805
:1000D000B80500200448804704480047FEE7FEE7D3
:1000E000FEE7FEE7FEE7FEE7ED140008C1000008AA
:1000F00030B50B46014600202022012409E00D46C0
:10010000D5409D4205D31D469540491B2546954047
:1001100040191546521E002DF1DC30BDF0B51FB45C
:100120000646002082B005464024019100901BE065
:10013000019922460F46304600F042F8049A059B8A
:10014000801A994110D310461946224600F028F82B
:10015000361A8F410197224601200021009F00F0AE
:100160001FF838184D4100902046641E0028DFDC3F
:10017000019B00982946324607B0F0BDD2B201E09B
:100180000270401C491EFBD270470022F6E710B5F2
:1001900013460A4604461946FFF7F0FF204610BDF5
:1001A00010B5202A04DB0146203A9140002010BD02
:1001B000914020239C1A0346E3401943904010BD10
:1001C00010B5202A04DB0846203AD040002110BD9B
:1001D0000B46D340D0402024A21A91400843194630
:1001E00010BD0000064C0125064E05E0E36807CC73
:1001F0002B430C3C98471034B442F7D3FFF764FF0D
:10020000E43000080431000870B504460025206879
:100210008068042108408008002829D02068806870
:10022000084000280BD020688068C007C00F002855
:1002300005D020688068102108432168886000F09C
:10024000DFFC05460EE000F0DBFC401B022809D96C
:10025000206B102108432063606B01210843606319
:10026000012070BD20688068042108400028EAD180
:100270000020F6E770B50446002520688068C007B6
:10028000C00F012148404840002837D020688068CE
:1002900005210840012800D100E0002000280AD0F4
:1002A00000BF20688068022108432168886002201E
:1002B0002168086009E0206B102108432063606B0F
:1002C000012108436063012070BD00F099FC0546E0
:1002D0000EE000F095FC401B022809D9206B10218C
:1002E00008432063606B0121084360630120EBE752
:1002F00020688068C007C00F0028EAD10020E3E72B
:1003000038B504460020009020688068C007C00F00
:10031000012148404840002827D1206880681449BE
:100320000840002801D1012000E00020002809D168
:10033000206B102108432063606B01210843606338
:10034000012038BD20688068012108432168886049
:10035000084909480068FFF7CBFE009002E00098CA
:10036000401E009000980028F9D10020E9E7000025
:100370001700008040420F000000002000BFFEE791
:1003800010B500BF21480068FF21013108431F4913
:10039000086000BF00BF00BF1C480068012189023F
:1003A0000840800A0028F6D00020184989680F22EA
:1003B000120291430143154A916000BF00BF1146EC
:1003C0008968C908C9000143916000BF00BF00BF30
:1003D0000E488068382108400028F8D100BF0B493A
:1003E00089680722120391430143084A916000BFC4
:1003F000074801F01DF8064801F02EF8054800698D
:10040000022108430349086110BD000000100240AA
:1004100000366E0100E000E008B505494143009157
:1004200000BF00BF00994A1E00920029F9D108BD03
:10043000B80B000070B504460025002600BF2C2034
:10044000005D012801D1022070BD01212C20015541
:1004500000BF2068806808404840484000282CD1F0
:10046000206B0902884302210843206320688068CA
:10047000890708432168886000F0C2FB064611E046
:1004800000F0BEFB801B02280CD9206B02218843A0
:1004900010210843206300BF00212C20015500BF1C
:1004A0000120D1E720688068C00FC0070028E7D18D
:1004B000206B02218843206304E0206B2021084345
:1004C0002063012500BF00212C20015500BF2846D4
:1004D000BAE70000F8B504460D460026002000905B
:1004E00001210907A06A884215D0A06A012812D00C
:1004F000A06A02280FD0A06A03280CD0A06A0428A2
:1005000009D0A06A052806D0A06A062803D0A06AF0
:10051000072800D000BF00BF2C20005D012801D1BA
:100520000220F8BD01212C20015500BF2068806801
:1005300004210840800800287BD14449686888422B
:100540005BD02068806A2A780121914008432168A5
:10055000886201210907A06A884229D0A06A01287F
:1005600026D0A06A022823D0A06A032820D0A06A3F
:1005700004281DD0A06A05281AD0A06A062817D022
:10058000A06A072814D0A868216849694907490F5B
:1005900088420DD020684069C008C00021684861C9
:1005A00020684069297A4907490F08432168486152
:1005B0002868082802D0286809283FD12448806884
:1005C0002968082901D1090501E0012189050843AD
:1005D0001F4988602868082830D11E491E480068D5
:1005E000FFF786FD0A214843009002E00098401E74
:1005F000009000980028F9D120E02068806A2A78CD
:10060000012191408843216888622868082802D027
:100610002868092812D10E4880682968082902D163
:10062000090502E005E00121890588430849886041
:1006300004E0206B202108432063012600BF002135
:100640002C20015500BF30466BE700000110000070
:100650000027014040420F000000002001460868CA
:10066000006C704770B5044600260025002C01D1AF
:10067000012070BD206B002806D1606300212C2072
:100680000155204600F0BAF8206B102108400028E0
:100690007ED1002EFCD120688068042108408008AB
:1006A0000028F5D1206B890188430221084320638B
:1006B00020688068C007C00F0121484048400028DA
:1006C0000FD12068C06818218843A16808432168B9
:1006D000C86020680069000100096168084321685A
:1006E00008612068C068434908402168C860207ECE
:1006F0008003617E49030843616A012902D0012118
:10070000090300E000210843E16808432169022948
:1007100001D1042100E0002108430543A07E012807
:100720000ED1607E002803D101200004054307E0BC
:10073000206B202108432063606B01210843606324
:10074000FF21C231E069884203D0216AE069084391
:1007500005432068C06828432168C8600121090753
:10076000A06A884216D0A06A012813D0A06A022885
:1007700010D0A06A03280DD0A06A04280AD0A06A6D
:10078000052807D0A06A062804D0A06A072800E040
:1007900029E00DD120684069C008C0002168486187
:1007A00020684069218D4907490F08432168486145
:1007B0002068C06810490840A84208D10020606342
:1007C000206B0221884301210843206310E0206B45
:1007D00002218843102108432063606B01210843F4
:1007E0006063012604E0206B10210843206301268A
:1007F00030463EE71BC2FEFFE7FF3FC310B586B0A1
:100800000446142101A8FFF7C0FC2449206888424F
:1008100001D006B010BD00BF2148006801210905C4
:1008200008431F490860084600680121090508407F
:10083000009000BF00BF00BF19484038406B012145
:1008400008431749403948630846406BC007C00F4A
:10085000009000BF00BF00BF0846406B0221084364
:100860000F49403948630846406B02210840009018
:1008700000BF00BF032002900020039018200190C9
:1008800001A90520000700F0D1F80320019001A97B
:10089000044800F0CBF800BFBBE700000024014093
:1008A0004010024000040050F8B504460D4660694F
:1008B000082801D1082700E00C2700F0A1F906461E
:1008C00014E0681C002811D0002D04D000F098F925
:1008D000801BA8420AD9206B04210843206300BF73
:1008E00000212C20015500BF0320F8BD20680068BE
:1008F00038400028E5D0206B0121490208432063DD
:100900002068C068032189020840002825D1607E44
:10091000002822D1206800680821084008281CD13E
:100920002068806804210840800800280DD12068D4
:1009300040680C21884321684860206BFF21013109
:10094000884301210843206307E0206B20210843EE
:100950002063606B012108436063207E002802D180
:100960000C20216808600020BFE7000070B5044635
:10097000002520688068042108408008002828D1CC
:1009800000BF2C20005D012801D1022070BD012193
:100990002C20015500BF2046FFF7B2FC0546002D74
:1009A00018D1206B0C490840FF2101310843206316
:1009B0000020606300BF00212C20015500BF1C20D7
:1009C00021680860206880680421084321688860E5
:1009D00000E002252846D9E7FEF1FFFF70B5044686
:1009E000002500BF2C20005D012801D1022070BD30
:1009F00001212C20015500BF2046FFF705FC0546CC
:100A0000002D0CD12046FFF735FC0546002D06D100
:100A1000206BFF210131884301210843206300BF7F
:100A200000212C20015500BF2846E0E770B50346A1
:100A30000022CBE0012696400C683440002C71D097
:100A40004D68022D02D04D68122D15D1D508AE008B
:100A50001D462035A8595507EE0E0F25B540064610
:100A6000AE4330465607F60E0D69B5402843D5080B
:100A7000AD001E4620367051186856000325B5405B
:100A80000646AE4330460D79AD07AD0F5600B54072
:100A9000284318604D68012D08D04D68022D05D0FF
:100AA0004D68112D02D04D68122D18D1986856004E
:100AB0000325B5400646AE4330465600CD68B540E6
:100AC000284398605868012595400646AE43304655
:100AD00010264D6835402D09954028435860D86848
:100AE00056000325B5400646AE43304656008D6895
:100AF000B5402843D860012636074D683540B542D9
:100B000063D1354D9608B600A8599507EE0E0F250E
:100B1000B5400646AE43304605252D07AB4202D10F
:100B2000002506E051E02D4DAB4201D1012500E04A
:100B300002259607F60EB5402843274D9608B600C5
:100B4000A851254D203528680546A543284601268D
:100B500036044D683540B54202D105462543284646
:100B60001D4D2035286068680546A54328460126A6
:100B700076044D683540B54202D1054625432846E6
:100B8000154D20356860144D603D28680546A54325
:100B90002846012636054D683540B54202D1054646
:100BA000254328460C4D603D286068680546A543EE
:100BB0002846012676054D683540B54202D10546E6
:100BC00025432846044D603D6860521C0D68D540A1
:100BD000002D00D02EE770BD6018024000040050C8
:100BE000024613690B40002B01D0012000E00020D9
:100BF0007047002A01D0816100E0816270470000E7
:100C0000014800687047000068000020014600228B
:100C100000BF3C20405C012801D102207047012325
:100C20003C20435400BF24233D2043540868C2683D
:100C30000C23104698430246042002430868C26011
:100C400020233D20435400BF00233C20435400BFD9
:100C50000020E3E70146002200BF3C20405C012861
:100C600001D10220704701233C20435400BF2423BC
:100C70003D2043540868C2680C231046984302463E
:100C8000082002430868C26020233D20435400BF6F
:100C900000233C20435400BF0020E3E710B5044686
:100CA000002C01D1012010BD3D20005D002805D1A0
:100CB00000213C200155204600F0A4FA24213D20CB
:100CC00001552068C0680121490388432168C86034
:100CD000204600F0EFFD206800690121C902884329
:100CE000216808612068406908210843216848613B
:100CF0002068C0680121490308432168C8600020BA
:100D0000206420213D2001553E2001550020CAE7E6
:100D100003480068034909684018014908607047A2
:100D2000680000207000002000BFC206D20E012122
:100D30009140024A116000BF7047000000E100E0EE
:100D400070B504460D4616462946204600F08CFB39
:100D500070BD0000014800687047000000000020DE
:100D600000B5FFF7F7FF0649896807221203114013
:100D7000090B8900034A515CC906C90EC84000BD71
:100D800000100240A430000810B50446002C01D128
:100D9000012010BDA07F002803D16077204600F01D
:100DA0000BF80220A077211D206800F0C5FB012070
:100DB000A0770020EDE7000008B50A4A01689142DB
:100DC0000ED100BF08490968D2131143064A1160C9
:100DD000114609680122D2031140009100BF00BFF3
:100DE00008BD0000002000404010024001460220E3
:100DF0008877086880684207520F062A05D008687D
:100E00000068012318430B681860012088770020D0
:100E1000704770B504460D46164600BF607F012836
:100E200001D1022070BD0120607700BF0220A077B1
:100E3000002E06D0042E1BD0082E33D00C2E62D1EB
:100E400047E02946206800F0B9FB20688069082146
:100E500008432168886120688069042188432168EB
:100E600088612068806929690843216888614BE0AE
:100E70002946206800F0E8FB206880690121C9024A
:100E800008432168886120688069012189028843BC
:100E900021688861206880692969090208432168FE
:100EA000886131E02946206800F01CFC2068C06998
:100EB000082108432168C8612068C069042188436B
:100EC0002168C8612068C069296908432168C86130
:100ED0001AE02946206800F051FC2068C069012111
:100EE000C90208432168C8612068C06901218902DC
:100EF00088432168C8612068C069296909020843DC
:100F00002168C86100E000BF00BF0120A07700BFDA
:100F10000020607700BF00BF84E710B50446002CB6
:100F200001D1012010BDA07F002803D160772046A9
:100F300000F00AF80220A077211D206800F0FCFADA
:100F40000120A0770020EDE710B586B004461421FB
:100F500001A8FFF71AF91F492068884201D006B09E
:100F600010BD00BF1C4800680121C90208431A498E
:100F7000086008460068C9140840009000BF00BF20
:100F800000BF15484038406B0121084312494039E1
:100F900048630846406BC007C00F009000BF00BF09
:100FA0000220029000200390022004900120019072
:100FB0000220059001A905200007FFF737FD022058
:100FC0000190059001A905200007FFF72FFD00BF44
:100FD000C5E70000002C01404010024070B50446F7
:100FE0000E4601223146206800F0D6FA10492068EA
:100FF000884203D00F492068884201D1012000E0D7
:101000000020002806D02068406C0121C903084355
:10101000216848642068806845076D0F062D05D05B
:10102000206800680121084321680860002070BD25
:10103000002C01400020004001460868C068FF22E3
:10104000213290430A68D060086840694008400037
:101050000A6850610020488720223E204254002028
:101060007047000038B504460E48844219D10E4935
:101070002068884215D12046FFF7DEFF00BF002020
:10108000009020680068009020684068009000BFD1
:1010900000BF2046FFF7BAFD00200449087001F0A8
:1010A00045FD38BDF0000020003801401900002047
:1010B000FEB50446206805682068C6682068476950
:1010C000002001902807000F0190019800280BD103
:1010D00020202840002807D020203040002803D0BE
:1010E000204600F0A2FBFEBD0198002859D0F80769
:1010F000C00F002804D1FF2021303040002850D0FC
:10110000E807C00F002808D0FF2001303040002839
:1011100003D0206C012108432064042028400028CB
:1011200007D0F807C00F002803D0206C0221084325
:10113000206402202840002807D0F807C00F0028AC
:1011400003D0206C04210843206408202840002894
:1011500007D0F807C00F002803D0206C08210843EF
:101160002064206C00281BD020202840002806D0B6
:1011700020203040002802D0204600F056FB206C92
:1011800008210840002806D0204600F02DFB20460C
:10119000FFF768FF04E02046FFF764FF00202064AB
:1011A000A1E710202840002811D01020304000284E
:1011B0000DD000BF002000902068006800902068DB
:1011C0004068009000BF00BF204600F01AF8802061
:1011D0002840002807D080203040002803D0204637
:1011E00000F03AFC7FE740202840002807D040204C
:1011F0003040002803D0204600F007FB73E700BF13
:1012000071E7704710B586B00446142101A8FEF7B7
:10121000BCFF1B492068884201D006B010BD00BF4A
:101220001848406B01210843164948630846406B43
:10123000C007C00F009000BF00BF00BF1148403082
:1012400000680121890308430E49403108600846BF
:101250000068012189030840009000BF00BF4020C2
:1012600001900220029001200390022004900120AE
:10127000059001A905200007FFF7D8FB00BFCCE7C8
:10128000003801400010024010B503463E20C05C0B
:10129000202832D1002901D0002A01D1012010BD1F
:1012A00000BF3C20C05C012801D10220F7E70124E7
:1012B0003C20C45400BF59631A875A870020186421
:1012C00022243E20C45400BF00243C20C45400BF4C
:1012D0001868C068FF24013420431C68E060186867
:1012E0004069012420431C6860611868C06820249C
:1012F00020431C68E0600020D1E70220CFE7000017
:1013000010B504460648844209D10649206888423F
:1013100005D10548007801F025FB01F007FC10BD60
:10132000F0000020003801401A000020FFB583B013
:1013300004460D461746002001903D20005D202800
:1013400071D1002D01D0002F02D1012007B0F0BDD6
:1013500001210903A068884208D12069002805D12D
:10136000E807C00F002801D00120EFE700BF3C20B4
:10137000005D012801D10220E8E701213C20015550
:1013800000BF0020206421213D200155FFF738FCDB
:1013900001902786678601210903A068884205D14C
:1013A0002069002802D10026029502E02E46002086
:1013B00002901EE006980090002280212046019BAA
:1013C00000F083FB002801D00320BFE7002E09D1E5
:1013D00002980088C005C00D216848600298801CF2
:1013E000029003E0307821684860761C608E401ED1
:1013F0006086608E0028DDD1069800900022402192
:101400002046019B00F061FB002801D003209DE7EE
:1014100020213D20015500BF00213C20015500BF87
:10142000002093E7FFE7022090E7704700BFFEE748
:1014300070B504467D25ED0029462046FEF758FE8E
:10144000401E04494861002088610520086100BFF2
:1014500070BD000000E000E0014908607047000036
:10146000000000207047000010B5002819DA1A4A61
:1014700003071B0F083B9B089B00D2588307DC0E19
:10148000FF23A3409A438B071B0E8407E40EA3405F
:101490001A43114B0407240F083CA408A4001A5156
:1014A00018E00E4A03231B02D21883089B00D2586F
:1014B0008307DC0EFF23A3409A438B071B0E840790
:1014C000E40EA3401A43054B032424021B1984088D
:1014D000A4001A5110BD00001CED00E000E100E086
:1014E0007047704710B5FFF713FC10BD10B50E48DC
:1014F0004068000C00040D49098889B208430A4974
:101500004860084640680A490840084940318988CF
:10151000C905C909084304494860C80305498860EA
:10152000C820FEF779FF10BD001002400001FF1F28
:10153000FFFF00FE00ED00E010B50268144B98427A
:1015400005D170241346A3431A464B681A43104B27
:10155000984202D00F4B984206D10324240213462E
:10156000A3431A46CB681A4380241346A3434C690D
:1015700023431A4602608B68C3620B688362044B84
:10158000984201D10B6903630123436110BD000040
:10159000002C01400020004070B5CD06ED0E012466
:1015A000AC402346046A9C430462046ACE06F60EED
:1015B0001546B5402C43046270BD000070B5056A45
:1015C0006D086D000562026A4368846970262546CD
:1015D000B5432C46A408A4000D682C4302261546EA
:1015E000B5432A468D682A43154DA84200D103E031
:1015F000144DA8420AD100BF08261546B5432A4615
:10160000CD682A4304261546B5432A460C4DA84208
:1016100002D00C4DA8420CD1FF2601361D46B54321
:101620002B4676001D46B5432B464D692B438D69ED
:101630002B43436084614D684563026270BD0000C6
:10164000002C01400020004070B5056A1026B5430B
:101650000562026A43688469072636032546B54356
:101660002C46032636022546B5432C460D682D022E
:101670002C4320261546B5432A468D682D012A4362
:10168000164DA84200D103E0154DA8420BD10AE047
:1016900080261546B5432A46CD682D012A434026AB
:1016A0001546B5432A460D4DA84202D00C4DA8421E
:1016B0000ED10126B6021D46B5432B4676001D46C7
:1016C000B5432B464D69AD002B438D69AD002B43CF
:1016D000436084614D688563026270BD002C0140E7
:1016E0000020004070B5056AFF260136B54305624B
:1016F000026A4368C46970262546B5432C46A4088F
:10170000A4000D682C43012676021546B5432A46EF
:101710008D682D022A43174DA84200D103E0164DD3
:10172000A8420CD10BE00126F6021546B5432A4625
:10173000CD682D022A4376101546B5432A460D4D35
:10174000A84202D00C4DA8420ED1012636031D46F8
:10175000B5432B4676001D46B5432B464D692D01FA
:101760002B438D692D012B434360C4614D68C563D4
:10177000026270BD002C01400020004070B5056A77
:1017800001263603B5430562036A4468C269072629
:1017900036031546B5432A46032636021546B54399
:1017A0002A460D682D022A43012676031D46B543BD
:1017B0002B468D682D032B43094DA84202D0094DBD
:1017C000A84207D10126B6032546B5432C464D69EC
:1017D000AD012C434460C2614D680564036270BD75
:1017E000002C0140002000400168C968FF2221321E
:1017F00091430268D160016849694908490002685B
:10180000516120223E210A54704710B504462068D9
:10181000C068402188432168C86020213D200155CF
:101820002046FFF702FE002010BD70B504463E20A2
:10183000005D22283BD101210903A06888420CD118
:101840002069002809D1656B20684068C005C00D7B
:101850002880606B801C606306E020684068C1B22D
:10186000626B501C60631170608F401E80B2608795
:1018700000281AD12068C068202188432168C860E8
:101880002068C068FF21013188432168C860206852
:101890004069400840002168486120213E200155F0
:1018A0002046FFF72DFD002070BD0020FCE7022040
:1018B000FAE70000FEB504462068006901214903EB
:1018C0008843E1680843216808612169A0680843EA
:1018D0006169084302902068C0685E490840029927
:1018E00008432168C860E0690290206840690121CE
:1018F000C902884302990843216848612068406909
:10190000032109028843A169084321684861012134
:10191000C902E06988424ED1FFF722FA05466268A3
:10192000510019226A431046FEF7E2FB0646642185
:10193000FEF7DEFB07016268510019226A43104678
:10194000FEF7D6FB06466268510019226A4310462C
:10195000FEF7CEFB64210090FEF7CAFB64214843EA
:10196000301AC00032300190FEF7C2FBF821084067
:1019700040003F186268510019226A431046FEF782
:10198000B7FB06466268510019226A431046FEF70B
:10199000AFFB64210090FEF7ABFB64214843301A93
:1019A000C00032300190FEF7A3FB4007400F38180B
:1019B000216888604CE0FFF7D3F905466268910022
:1019C00019226A431046FEF793FB06466421FEF790
:1019D0008FFB07016268910019226A431046FEF7E7
:1019E00087FB06466268910019226A431046FEF79B
:1019F0007FFB64210090FEF77BFB64214843301A93
:101A0000000132300190FEF773FBF02108403F18CF
:101A10006268910019226A431046FEF769FB064688
:101A20006268910019226A431046FEF761FB642147
:101A30000090FEF75DFB64214843301A000132300C
:101A40000190FEF755FB0007000F381821688860E9
:101A5000FEBD0000F3E9FFFF10B501463D20405CEC
:101A6000212830D1012424038868A0420ED10869BE
:101A700000280BD1CA6A086800681088C005C00D2C
:101A80000C686060C86A801CC86208E0CB6A08689D
:101A9000006818780C686060C86A401CC862488E8C
:101AA000401E80B2488600280BD10868C068802498
:101AB000A0430C68E0600868C068402420430C68BC
:101AC000E060002010BD0220FCE7FFB581B00446B5
:101AD0000D4617460A9E24E0701C002821D0002ED7
:101AE00005D0FFF78DF80499401AB04219D9206843
:101AF000C068FF21A13188432168C860206840691F
:101B0000400840002168486120213D2001553E20C9
:101B1000015500BF00213C20015500BF032005B046
:101B2000F0BD206800682840A84201D1012000E0F3
:101B30000020B842D0D00020F1E710B500F0F8FC4A
:101B400010BD30B47446641E2578641CAB4204D3C7
:101B5000635D5B00E31830BC18471D46F8E702E000
:101B600008C8121F08C1002AFAD170477047002028
:101B700001E001C1121F002AFBD170473EB50446A7
:101B80000020009001900290009401200003019039
:101B90000720029069462048FEF79CFC002803D0ED
:101BA000FEF7ECFB00203EBD1B48FEF7DFFE0028E1
:101BB00009D01A48019069461748FEF78BFCFEF7DA
:101BC000DDFB0020EFE70A211348FEF76DFE002839
:101BD0000CD01148FEF702FF1048019069460E48EC
:101BE000FEF778FCFEF7CAFB0020DCE70A48FEF7A8
:101BF00035FD85B20848FEF7F1FE084801906946B8
:101C00000548FEF767FC002803D0FEF7B7FB00206D
:101C1000C9E72846C7E70000740000200110000053
:101C200010B5134813490860C004486000211148EA
:101C30008160C160012101610421416100210176BF
:101C400041768176FF21C231C1610021016241628A
:101C500007218162FEF706FD002801D0FEF78EFB0A
:101C60000448FEF7E7FB002801D0FEF787FB10BD14
:101C7000002401407400002070B504460D46214642
:101C80006943034A88180349FEF732FA80B270BDEF
:101C9000FF070000FF0F000010B50020FFF76EFFE8
:101CA00010BD10B50120FFF769FF10BD10B502206F
:101CB000FFF764FF10BD10B50720FFF75FFF10BDF1
:101CC00070B5FEF79DFF054625480068281A642870
:101CD00000D270BD2248056000F0B2F804462148E9
:101CE0000480FFF7DEFF1F494880FFF7DFFF1D4933
:101CF000C880FFF7E0FF1B494881FFF7CDFF194976
:101D0000C88148882146FFF7B7FF16498880C888F0
:101D10002146FFF7B1FF1349088148892146FFF7A3
:101D2000ABFF10498881C8892146FFF7A5FF0D49FF
:101D30000882084680880B2148430A4948610846C2
:101D400000890949401A0A21484306498861084622
:101D50008089C8610846008A086200BFB9E70000B0
:101D600004000020AC0000207206000070B505469B
:101D7000002D05D00A480078002801D0012000E09D
:101D80000020044607480078844207D005480470C4
:101D9000204600F0B6F8204600F09CF870BD000028
:101DA000080000200900002001480078704700006A
:101DB0000A00002010B5012007490870FF200749DC
:101DC00008700020064908700649086000F099F87C
:101DD00000F07AF810BD0000080000200900002083
:101DE0000A0000200C00002010B500F0F1FE0446AF
:101DF0002046FFF7BBFF204600F002F810BD0000B0
:101E0000002803D100210B4A117012E00A49097819
:101E100000290BD009498969002903DA0121054A03
:101E2000117006E00221034A117002E00321014A09
:101E3000117070470A00002008000020AC0000204C
:101E400010B50920FFF79AFE0446002C01D1044882
:101E500010BD21460348FEF74BF980B2F8E70000B9
:101E6000E40C000050FB4A0010B5002000F049F8D7
:101E700010BD000000B587B0142102A8FEF785F957
:101E800000BF1048406B012108430E4948630846D3
:101E9000406BC007C00F019000BF00BF002000F0E2
:101EA00030F8042002900120039000200490059057
:101EB000069002A905200007FEF7B8FDFFF7D4FF42
:101EC00007B000BD0010024010B5002000F002F87D
:101ED00010BD000010B50446002C01D0012000E028
:101EE0000020024602210248FEF783FE10BD0000DA
:101EF000000800500146002901D001207047002051
:101F0000FCE770B504462046FFF7F4FF05462A4675
:101F1000042105200007FEF76CFE70BD30B585B0CA
:101F200005460C4614216846FEF72FF9009401205F
:101F30000190002002900390049069462846FEF725
:101F400075FD05B030BD000008B500BF1848406BF6
:101F500002210843164948630846406B02210840A5
:101F6000009000BF00BF00BF1148406B0421084330
:101F70000F4948630846406B04210840009000BFA9
:101F800000BF002208210B48FEF733FE0022022189
:101F90000948FEF72EFE08210648FFF7BFFF022181
:101FA0000548FFF7BBFF00F009F8FFF78DFF08BDFC
:101FB00000100240000400500008005010B500203E
:101FC00000F002F810BD000010B50446002C01D04E
:101FD000012000E00020024608210248FEF709FE29
:101FE00010BD000000040050FEF7CAF9FFF7ACFF77
:101FF000FFF740FF00F0B2FD00F00EF900F07EFEAA
:1020000000F05EFF00F080FA00F022F8FFF708FE13
:10201000FFF7D0FE0BE000F0EFFD00F0C5FA00F096
:102020006FFF00F089FAFFF7DFFEFFF749FEF2E7E6
:1020300010B5FEF7A3F910BD10B5002000F078F838
:1020400010BD10B57D20C00000F072F810BD00007A
:1020500000B587B01C216846FEF797F82148224951
:1020600008601720486000211F4881601F49C16037
:102070000021016141618161FEF74FFF002803D01B
:10208000FFF7D6FF07B000BD602000900020019050
:102090000290039004900590069000226946124831
:1020A000FEF7B7FE002806D1042269460E48FEF767
:1020B000B0FE002802D0FFF7BBFFE3E700210A488B
:1020C000FEF78CFF002805D104210748FEF786FFA4
:1020D000002802D0FFF7ACFFD4E700F035F800BFCE
:1020E000D0E70000002C0140D0000020E7030000F2
:1020F00001467D20C000814200D970470846FCE7B8
:1021000010B5002000F008F810BD10B57D20C0000B
:1021100000F002F810BD000010B504462046FFF79D
:10212000E7FF02490968486310BD0000D0000020A5
:1021300010B504462046FFF7DBFF024909688863B3
:1021400010BD0000D000002010B50020FFF7E4FF14
:102150000020FFF7EDFF10BD30B503460C461D19FA
:10216000E8B2002104E0555C2D18E8B24D1CE9B23C
:102170009942F8DB30BD000010B500200749087017
:10218000074908700749087007490870074908702F
:10219000FEF736FD0649086010BD00001C00002057
:1021A0001D0000201E0000201F0000202000002035
:1021B0002400002010B50446AA2C01D1012000E023
:1021C0000020084908700020074908700749087076
:1021D0000749087007490870FEF712FD06490860B4
:1021E00010BD00001C0000201D0000201E0000206B
:1021F0001F000020200000202400002070B50446AD
:1022000000F05EF9054600BF00F05AF9401B80B2AD
:10221000A042F9DB70BD000000B587B0142102A810
:10222000FDF7B3FF00BF2548406B02210843234957
:1022300048630846406B02210840019000BF00BF80
:10224000012210211E48FEF7D4FC1020029001202C
:1022500003900490022005900020069002A91848DF
:10226000FEF7E4FB20200290002003900120049060
:1022700000200590069002A91148FEF7D7FB1148EF
:10228000114908601720486000210F4881600F49FC
:10229000C160002101618161FEF776FD002804D153
:1022A0000948FEF7A3FD002803D0FEF767F807B042
:1022B00000BD01200649087000BFF8E70010024089
:1022C000000400500020004094010020FFFF0000A7
:1022D0003A000020F7B584B00E4614461A4800783C
:1022E000002804D00498002801D0002E03D100203B
:1022F000C04307B0F0BDFEF783FC039000251FE04C
:102300000294002C0DD0FEF77BFC0399401A01903B
:102310000198A04201D32846EBE70198201A0290C9
:1023200000BF04994819029900F010F80746002FE1
:1023300004DC01DA3846DCE72846DAE7681C85B2B7
:10234000B542DDDB3046D4E73A000020F8B505465B
:102350000E460020009021480078002801D0002D72
:1023600002D10020C043F8BDFEF74AFC074608E052
:10237000002E06D0FEF744FCC01BB04201D3002063
:10238000F1E700F02DF80028F2D13420FFF736FFF6
:1023900000F026F8002801D00020E4E700240EE039
:1023A0006820FFF72BFF00F01BF8002805D0012064
:1023B000A040C0B2009908430090601CC4B2082C31
:1023C000EED36820FFF71AFF00F00AF8002801D1C9
:1023D000801EC8E7009828700120C4E73A0000205A
:1023E00010B520210348FEF7FBFB012800D110BDEA
:1023F0000020FCE700040050F7B506460C461548DF
:102400000078002803D0002E01D0002C02D100203B
:10241000C043FEBDFEF7F4FB0746002516E0705DE5
:10242000002100F019F8002802DA0020C043F0E78C
:102430000298002808D0FEF7E3FBC11B02988142F6
:1024400002D90020C043E4E7681C85B2A542E6DB60
:102450002046DEE73A000020F8B504460D4617484E
:102460000078002801D1401EF8BDFEF7C9FB0746E1
:10247000002000F02DF86820FFF7C0FE002609E0DC
:10248000E007C00F00F024F86820FFF7B7FE6410E3
:10249000701CC6B2082EF3D3012000F019F8682092
:1024A000FFF7ACFE002D07D0FEF7AAFBC01BA84229
:1024B00002D90020C043D7E70120D5E73A00002029
:1024C00002480068406A80B2704700009401002012
:1024D00010B50446002C01D0012000E00020024687
:1024E00010210248FEF785FB10BD000000040050DB
:1024F000014608784A78120210438A781204104381
:10250000CA7812061043704710B5002005490860CC
:10251000054908700549087000F004FA00F004F954
:1025200010BD0000340000203800002039000020D9
:1025300010B500F041F910BD10B51748007800281B
:1025400002D1FFF701FE10BD144800681449096864
:10255000884205D3002010490870FFF7F5FDF2E727
:1025600010480078002810D100F0B0FB0446FF208E
:102570009130844204D8FFF75FFDFFF7C6FD08E005
:10258000FFF7BEFDFFF75DFD03E0FFF7B9FDFFF7C5
:1025900058FD00BFD7E700003900002040000020B0
:1025A000340000203800002070B590B000F0A2FA8E
:1025B00000F076F9002801D110B070BD0EAA02A972
:1025C0000FA800F073F9002800D1F5E708A8007FF4
:1025D00001281FD108A8007E012807D16846007A8B
:1025E000002804D06846007A012800D0E4E7694654
:1025F000087AFFF7E9FC08214448FEF7F1FA0128C0
:1026000000D100E00020694608700122104600F069
:1026100041FAD1E708A8007F022828D108A8007E47
:10262000002824D13A4805783A48046800F04EFB67
:102630000446FFF7B9FB012800D100E000206946FD
:102640000870642D00D964256846457084702004A4
:10265000010E6846C1702002010E68460171200E0D
:10266000694648710622022000F014FAA4E708A87F
:10267000007F032832D1022608A8007E052825D134
:1026800002A8FFF735FF04466846057B002C1CD0E6
:102690002148844219D8022D17D800F061FB002888
:1026A00013D0204600F0D4FA1C4908601C4805707D
:1026B00001201C490870FFF73FFF1A4800780028E6
:1026C00001D0012000E00020064600BF68460670E9
:1026D00001226946032000F0DDF96DE708A8007FBC
:1026E000042811D1022408A8007E002804D10D4935
:1026F0000870FFF729FD002468460470012269462E
:10270000042000F0C7F900BF00BF55E700040050E7
:102710002C00002030000020605AF4053400002016
:10272000380000203900002010B500BF00211E48ED
:102730004177817700BF1D481B4920390860E1209F
:10274000400248600021184820388160C160016162
:102750000C21416100218161C161002012492039B1
:1027600008620846FEF79AFA002801D0FDF706FE37
:1027700001200F49087000200E4908700A482038CF
:10278000FEF744FA002803D100F0D0F9002801D167
:10279000FDF7F4FD002211461B20FEF7D1FA1B20A5
:1027A000FEF7C2FA10BD0000100100200038014001
:1027B000180000201900002010B5044800780028F7
:1027C00002D00348FEF774FC10BD00001800002082
:1027D000F0000020F8B504460D4616460E48007875
:1027E000002803D0002C01D0002D02D10020C043CE
:1027F000F8BD00F037F833462A4621460748FEF771
:1028000095FD074600F00CF8002F01D12846EFE7B0
:102810000020C043ECE7000018000020F00000207A
:1028200010B50D480078002800D110BD0B48007885
:10283000002809D00A48FEF7E9F9002801D0FDF781
:102840009DFD00200549087000F070F9002801D1B5
:10285000FDF794FD00BFE8E71800002019000020F4
:10286000F000002010B50B480078002810D00A486E
:10287000007800280CD10948FEF7DEFB0748FEF778
:10288000E9F9002801D0FDF779FD0120024908701F
:1028900010BD00001800002019000020F0000020EA
:1028A00001480078704700002800002070B50346FA
:1028B0000C4600BFEFF31080054672B6002B0BD01C
:1028C000002A09D013480078002805D01248007863
:1028D000002806D0002C04D1002D00D162B60020C3
:1028E00070BD0E48007818700B48007810700021F9
:1028F00004E00B48405C6054481CC1B206480078B4
:102900008142F6DB0020034E3070002D00D162B60C
:102910000120E5E7280000202A00002029000020EF
:102920006401002010B5FFF727FC0020084908705B
:102930000849087008490870002406E0002007498B
:10294000085507490855601CC4B2302CF6D310BD99
:1029500028000020290000202A0000203401002047
:102960006401002010B504463F4800780300FFF7DB
:10297000E8F806040A1425364E72AA2C02D101206A
:10298000394908706AE0552C03D102203649087095
:1029900002E02046FFF70EFC60E0302C03D9204611
:1029A000FFF708FC09E03148047000203049087046
:1029B0003048047003202C4908704FE02E48047002
:1029C0002C48007800192B49087028480078002806
:1029D00001D1052000E00420234908703EE027488B
:1029E0002349097844542348007800192149087084
:1029F0001F480078401C1E490870084600781B4993
:102A00000978884202DB05201749087026E019483A
:102A1000007884421BD11A480078002817D1164943
:102A20000978184A117011490978174A117000BFC6
:102A300005E01249095C154A1154411CC8B20B4902
:102A400009788842F5DB01210D4A117000BF002092
:102A5000FFF7B0FB02E0FFF78FFB00BF00BFFEF700
:102A6000CFF80B49086010BD1C0000201D0000209D
:102A70001F000020200000201E0000203401002044
:102A800028000020290000202A00002064010020E6
:102A900024000020F0B58FB007460E461446302CB7
:102AA00003D8002C05D0002E03D10020C0430FB066
:102AB000F0BDAA2168460171552141718471C77129
:102AC000002505E0715D281D01AA1154681CC5B2DE
:102AD000A542F7DB324639462046FFF73DFB211D74
:102AE00001AA5054601D0090642201A80099FFF7CC
:102AF00071FEDCE710B50B480078002810D0FEF717
:102B00007FF809490968401A642809D300BFEFF328
:102B10001080044672B6FFF72FFB002C00D162B67E
:102B200010BD00001C0000202400002010B5094842
:102B3000807F20280BD10122074906482038FEF764
:102B4000A3FB002801D1012010BD0020FCE70120DB
:102B5000FAE70000100100201A00002000B587B03D
:102B6000142102A8FDF711FB00BF1548406B01219D
:102B70000843134948630846406BC007C00F0190E3
:102B800000BF00BF2020029000200390022004908C
:102B900000200590069002A905200007FDF746FFDA
:102BA00000200849087000F019F807490870FEF77E
:102BB00027F806490860FFF757F907B000BD000085
:102BC000001002401000002011000020140000201E
:102BD00001480078704700001000002070B52021E7
:102BE00005200007FDF7FCFF04460125AC4200D19B
:102BF00070BD0020FCE7000070B5FFF7EFFF044652
:102C0000FDF7FEFF05460F480078844204D00D48CA
:102C100004700D48056070BD0A4800780B490978BA
:102C200088420CD008480068281A142807D30548A1
:102C300000780649087008460078FFF762F900BF7F
:102C4000E9E700001100002014000020100000201F
:102C50000146064800680022D243101A884201D279
:102C600010467047014800680818FAE74400002041
:102C700030B502460B46002012E01478521C60402A
:102C800000210BE0C407E40F002C03D044108C2576
:102C90006C4000E0441020464C1CE1B20829F1D3FE
:102CA0001C465D1EEBB2002CE7D130BD70B5054669
:102CB0000C46FDF7A5FF461B642E02D300202060C2
:102CC00070BD6420801B20600120F9E7084800786F
:102CD0000A2801D2002070470648016806480068AB
:102CE000814201D80020F6E703480068081AF2E79D
:102CF00051000020400000204400002010B50020BA
:102D00000D4908600D49086001200D490870002038
:102D10000C490870FDF774FF0B49086000200B494F
:102D200008700B49087000210A4A116051600A4975
:102D300008600A49086010BD4000002044000020DF
:102D400048000020490000204C00002050000020D6
:102D50005100002058000020600000206400002086
:102D6000034800780A2801D3012070470020FCE7BF
:102D7000510000201CB5044669460E2000F0FEF804
:102D8000002804D1012000F06DF800201CBD0A22AB
:102D90000621684600F04AF9002804D1032000F01B
:102DA00061F80020F2E769460D2000F0E7F80028FE
:102DB00004D1012000F056F80020E7E7092208219D
:102DC000684600F033F9002804D1032000F04AF8E7
:102DD0000020DBE76846C1780079000208436946B5
:102DE000497909040843694689790906084320603E
:102DF0000120CBE7F7B582B004460F4601A904983D
:102E0000FFF754FF002801D105B0F0BD0221204694
:102E1000019AFFF75FFA0546022D01D00020F3E783
:102E20002078AA2805D16078042802D36078B842B7
:102E300001DD0020E8E7667801A90498FFF736FF76
:102E4000002800D1E0E7B01E81B2A01C019AFFF774
:102E500041FA0546B01EA84201D10120D4E7002066
:102E6000D2E700000549087005490978FF2904D018
:102E700003490978491C024A117070474800002034
:102E80004900002038B504460D460CA000680090AB
:102E900068468470FDF7B4FE286003216846FFF79A
:102EA000E7FE6946C870642204216846FFF7A4FA69
:102EB000042801D1012038BD0020FCE755040000A2
:102EC00008B509E06846FFF755FF002800D103E088
:102ED000009800F063F800BF054800780A28F1D395
:102EE000002004490860044908700449087008BDBE
:102EF0005100002040000020480000204900002030
:102F000038B5FDF77DFE044616480078002804D148
:102F10000120144908701448046013480068201AFE
:102F200000D538BD7D20C00020180F4908606846D4
:102F3000FFF720FF002800D1F3E70C4800780A28AB
:102F400006D2009800F02AF800200949086002E043
:102F50000749009808600020064908700649087073
:102F600000BFDEE7500000204C0000205100002090
:102F700040000020480000204900002038B50546E8
:102F80000C4669462846FFF77DFF002800D138BD72
:102F900008212046009AFFF72DFFF8E770B5044698
:102FA0001D480078002804D11C4804601C480460B7
:102FB0000BE01A480068844201D21848046018489F
:102FC0000068844201D916480460164802684068C7
:102FD00000211219484113490A6048600E480078E0
:102FE000401C0D490870084600780A2812D10D4887
:102FF000036841680948006800221B1A914108488B
:1030000000681D1A9141082200232846FDF786F822
:103010000549086070BD00005100002060000020DC
:1030200064000020580000204400002070B50446D1
:103030000D4616462078AA2805D16078A84202D10C
:10304000A078B04201D0002070BD681EC1B22046F9
:10305000FFF70EFE691E615C884201D10120F3E793
:103060000020F1E700000000000000000000000068
:103070000000000000000000000000000000000050
:10308000000000000100000002000000030000003A
:103090000400000006000000070000000800000017
:1030A0000900000000000000000000000000000017
:1030B000000000000100000002000000030000000A
:1030C0000400000000093D0000127A00000000002A
:1030D0000000000000366E01006CDC020000000001
:1030E000000000000431000800000020740000000F
:1030F0005E1B0008783100087400002044050000C1
:103100006E1B000800366E01000000000000000089
:1031100000000000000000000000000000000000AF
:10312000000000000000000000000000000000009F
:1031300050000000CD8B01000000000000000000E6
:10314000000000000000000000000000010000007E
:10315000000000000000000000000000000000006F
:10316000000000000000000000000000000000005F
:08317000040000000100000052
:04000005080000C12E
:00000001FF
